{
  "_format": "hh-sol-artifact-1",
  "contractName": "SupplyChain",
  "sourceName": "contracts/SupplyChain.sol",
  "abi": [
    {
      "inputs": [
        {
          "internalType": "address",
          "name": "_roleManagerAddress",
          "type": "address"
        }
      ],
      "stateMutability": "nonpayable",
      "type": "constructor"
    },
    {
      "anonymous": false,
      "inputs": [
        {
          "indexed": true,
          "internalType": "bytes32",
          "name": "batchId",
          "type": "bytes32"
        },
        {
          "indexed": true,
          "internalType": "address",
          "name": "manufacturer",
          "type": "address"
        },
        {
          "indexed": false,
          "internalType": "bytes32",
          "name": "metadataHash",
          "type": "bytes32"
        }
      ],
      "name": "BatchCreated",
      "type": "event"
    },
    {
      "anonymous": false,
      "inputs": [
        {
          "indexed": true,
          "internalType": "bytes32",
          "name": "batchId",
          "type": "bytes32"
        },
        {
          "indexed": true,
          "internalType": "address",
          "name": "verifier",
          "type": "address"
        },
        {
          "indexed": false,
          "internalType": "bool",
          "name": "isValid",
          "type": "bool"
        }
      ],
      "name": "BatchVerified",
      "type": "event"
    },
    {
      "anonymous": false,
      "inputs": [
        {
          "indexed": true,
          "internalType": "bytes32",
          "name": "batchId",
          "type": "bytes32"
        },
        {
          "indexed": true,
          "internalType": "address",
          "name": "from",
          "type": "address"
        },
        {
          "indexed": true,
          "internalType": "address",
          "name": "to",
          "type": "address"
        }
      ],
      "name": "OwnershipTransferred",
      "type": "event"
    },
    {
      "inputs": [
        {
          "internalType": "bytes32",
          "name": "_batchId",
          "type": "bytes32"
        },
        {
          "internalType": "bytes32",
          "name": "_metadataHash",
          "type": "bytes32"
        }
      ],
      "name": "createBatch",
      "outputs": [],
      "stateMutability": "nonpayable",
      "type": "function"
    },
    {
      "inputs": [
        {
          "internalType": "bytes32",
          "name": "_batchId",
          "type": "bytes32"
        }
      ],
      "name": "getBatch",
      "outputs": [
        {
          "internalType": "bytes32",
          "name": "batchId",
          "type": "bytes32"
        },
        {
          "internalType": "address",
          "name": "currentOwner",
          "type": "address"
        },
        {
          "internalType": "uint256",
          "name": "createdAt",
          "type": "uint256"
        },
        {
          "internalType": "bytes32",
          "name": "metadataHash",
          "type": "bytes32"
        },
        {
          "internalType": "enum SupplyChain.BatchState",
          "name": "state",
          "type": "uint8"
        }
      ],
      "stateMutability": "view",
      "type": "function"
    },
    {
      "inputs": [
        {
          "internalType": "bytes32",
          "name": "_batchId",
          "type": "bytes32"
        }
      ],
      "name": "getOwnershipHistoryLength",
      "outputs": [
        {
          "internalType": "uint256",
          "name": "",
          "type": "uint256"
        }
      ],
      "stateMutability": "view",
      "type": "function"
    },
    {
      "inputs": [
        {
          "internalType": "bytes32",
          "name": "_batchId",
          "type": "bytes32"
        },
        {
          "internalType": "uint256",
          "name": "_index",
          "type": "uint256"
        }
      ],
      "name": "getOwnershipRecord",
      "outputs": [
        {
          "internalType": "address",
          "name": "owner",
          "type": "address"
        },
        {
          "internalType": "enum RoleManager.Role",
          "name": "role",
          "type": "uint8"
        },
        {
          "internalType": "uint256",
          "name": "timestamp",
          "type": "uint256"
        }
      ],
      "stateMutability": "view",
      "type": "function"
    },
    {
      "inputs": [],
      "name": "roleManager",
      "outputs": [
        {
          "internalType": "contract RoleManager",
          "name": "",
          "type": "address"
        }
      ],
      "stateMutability": "view",
      "type": "function"
    },
    {
      "inputs": [
        {
          "internalType": "bytes32",
          "name": "_batchId",
          "type": "bytes32"
        },
        {
          "internalType": "address",
          "name": "_to",
          "type": "address"
        }
      ],
      "name": "transferBatch",
      "outputs": [],
      "stateMutability": "nonpayable",
      "type": "function"
    },
    {
      "inputs": [
        {
          "internalType": "bytes32",
          "name": "_batchId",
          "type": "bytes32"
        },
        {
          "internalType": "bytes32",
          "name": "_metadataHash",
          "type": "bytes32"
        }
      ],
      "name": "verifyBatch",
      "outputs": [
        {
          "internalType": "bool",
          "name": "",
          "type": "bool"
        }
      ],
      "stateMutability": "nonpayable",
      "type": "function"
    }
  ],
  "bytecode": "0x60806040523480156200001157600080fd5b5060405162001bde38038062001bde8339818101604052810190620000379190620000e8565b806000806101000a81548173ffffffffffffffffffffffffffffffffffffffff021916908373ffffffffffffffffffffffffffffffffffffffff160217905550506200011a565b600080fd5b600073ffffffffffffffffffffffffffffffffffffffff82169050919050565b6000620000b08262000083565b9050919050565b620000c281620000a3565b8114620000ce57600080fd5b50565b600081519050620000e281620000b7565b92915050565b6000602082840312156200010157620001006200007e565b5b60006200011184828501620000d1565b91505092915050565b611ab4806200012a6000396000f3fe608060405234801561001057600080fd5b506004361061007c5760003560e01c8063ad7e5f471161005b578063ad7e5f47146100eb578063b918deb61461011b578063d3b05c2e1461014d578063ed42136f146101695761007c565b8062435da5146100815780635347ae181461009f578063a7ccf2f1146100bb575b600080fd5b61008961019d565b604051610096919061113b565b60405180910390f35b6100b960048036038101906100b49190611191565b6101c1565b005b6100d560048036038101906100d09190611191565b610627565b6040516100e291906111ec565b60405180910390f35b61010560048036038101906101009190611207565b610704565b604051610112919061124d565b60405180910390f35b61013560048036038101906101309190611294565b61078c565b6040516101449392919061136c565b60405180910390f35b610167600480360381019061016291906113cf565b6108d5565b005b610183600480360381019061017e9190611207565b610fde565b604051610194959493929190611466565b60405180910390f35b60008054906101000a900473ffffffffffffffffffffffffffffffffffffffff1681565b60008054906101000a900473ffffffffffffffffffffffffffffffffffffffff1673ffffffffffffffffffffffffffffffffffffffff166317d4a491336040518263ffffffff1660e01b815260040161021a91906114b9565b602060405180830381865afa158015610237573d6000803e3d6000fd5b505050506040513d601f19601f8201168201806040525081019061025b9190611500565b61029a576040517f08c379a00000000000000000000000000000000000000000000000000000000081526004016102919061158a565b60405180910390fd5b6000801b82036102df576040517f08c379a00000000000000000000000000000000000000000000000000000000081526004016102d6906115f6565b60405180910390fd5b6000801b8103610324576040517f08c379a000000000000000000000000000000000000000000000000000000000815260040161031b90611662565b60405180910390fd5b6001600083815260200190815260200160002060040160019054906101000a900460ff1615610388576040517f08c379a000000000000000000000000000000000000000000000000000000000815260040161037f906116ce565b60405180910390fd5b6000600160008481526020019081526020016000209050828160000181905550338160010160006101000a81548173ffffffffffffffffffffffffffffffffffffffff021916908373ffffffffffffffffffffffffffffffffffffffff16021790555042816002018190555081816003018190555060008160040160006101000a81548160ff02191690836003811115610425576104246112f5565b5b021790555060018160040160016101000a81548160ff0219169083151502179055508060050160405180606001604052803373ffffffffffffffffffffffffffffffffffffffff16815260200160008054906101000a900473ffffffffffffffffffffffffffffffffffffffff1673ffffffffffffffffffffffffffffffffffffffff166344276733336040518263ffffffff1660e01b81526004016104cb91906114b9565b602060405180830381865afa1580156104e8573d6000803e3d6000fd5b505050506040513d601f19601f8201168201806040525081019061050c9190611713565b600481111561051e5761051d6112f5565b5b815260200142815250908060018154018082558091505060019003906000526020600020906002020160009091909190915060008201518160000160006101000a81548173ffffffffffffffffffffffffffffffffffffffff021916908373ffffffffffffffffffffffffffffffffffffffff16021790555060208201518160000160146101000a81548160ff021916908360048111156105c2576105c16112f5565b5b02179055506040820151816001015550503373ffffffffffffffffffffffffffffffffffffffff16837fce0778e1baede65be796ede6d43dc2d0fc63bb5b37e3f78f69bd421a5f56cfe38460405161061a9190611740565b60405180910390a3505050565b6000826001600082815260200190815260200160002060040160019054906101000a900460ff1661068d576040517f08c379a0000000000000000000000000000000000000000000000000000000008152600401610684906117a7565b60405180910390fd5b60008360016000878152602001908152602001600020600301541490503373ffffffffffffffffffffffffffffffffffffffff16857f08512a19f32a897594719536f9a61c20a0fc3519f06fc1007d63cb366e28dd2a836040516106f191906111ec565b60405180910390a3809250505092915050565b6000816001600082815260200190815260200160002060040160019054906101000a900460ff1661076a576040517f08c379a0000000000000000000000000000000000000000000000000000000008152600401610761906117a7565b60405180910390fd5b6001600084815260200190815260200160002060050180549050915050919050565b6000806000846001600082815260200190815260200160002060040160019054906101000a900460ff166107f5576040517f08c379a00000000000000000000000000000000000000000000000000000000081526004016107ec906117a7565b60405180910390fd5b60016000878152602001908152602001600020600501805490508510610850576040517f08c379a000000000000000000000000000000000000000000000000000000000815260040161084790611813565b60405180910390fd5b600060016000888152602001908152602001600020600501868154811061087a57610879611833565b5b906000526020600020906002020190508060000160009054906101000a900473ffffffffffffffffffffffffffffffffffffffff168160000160149054906101000a900460ff16826001015494509450945050509250925092565b816001600082815260200190815260200160002060040160019054906101000a900460ff16610939576040517f08c379a0000000000000000000000000000000000000000000000000000000008152600401610930906117a7565b60405180910390fd5b823373ffffffffffffffffffffffffffffffffffffffff166001600083815260200190815260200160002060010160009054906101000a900473ffffffffffffffffffffffffffffffffffffffff1673ffffffffffffffffffffffffffffffffffffffff16146109de576040517f08c379a00000000000000000000000000000000000000000000000000000000081526004016109d5906118ae565b60405180910390fd5b600073ffffffffffffffffffffffffffffffffffffffff168373ffffffffffffffffffffffffffffffffffffffff1603610a4d576040517f08c379a0000000000000000000000000000000000000000000000000000000008152600401610a449061191a565b60405180910390fd5b60008060009054906101000a900473ffffffffffffffffffffffffffffffffffffffff1673ffffffffffffffffffffffffffffffffffffffff166344276733336040518263ffffffff1660e01b8152600401610aa991906114b9565b602060405180830381865afa158015610ac6573d6000803e3d6000fd5b505050506040513d601f19601f82011682018060405250810190610aea9190611713565b905060008060009054906101000a900473ffffffffffffffffffffffffffffffffffffffff1673ffffffffffffffffffffffffffffffffffffffff166344276733866040518263ffffffff1660e01b8152600401610b4891906114b9565b602060405180830381865afa158015610b65573d6000803e3d6000fd5b505050506040513d601f19601f82011682018060405250810190610b899190611713565b905060006004811115610b9f57610b9e6112f5565b5b826004811115610bb257610bb16112f5565b5b03610c615760016004811115610bcb57610bca6112f5565b5b816004811115610bde57610bdd6112f5565b5b14610c1e576040517f08c379a0000000000000000000000000000000000000000000000000000000008152600401610c1590611986565b60405180910390fd5b600180600088815260200190815260200160002060040160006101000a81548160ff02191690836003811115610c5757610c566112f5565b5b0217905550610de5565b60016004811115610c7557610c746112f5565b5b826004811115610c8857610c876112f5565b5b03610d385760026004811115610ca157610ca06112f5565b5b816004811115610cb457610cb36112f5565b5b14610cf4576040517f08c379a0000000000000000000000000000000000000000000000000000000008152600401610ceb906119f2565b60405180910390fd5b60026001600088815260200190815260200160002060040160006101000a81548160ff02191690836003811115610d2e57610d2d6112f5565b5b0217905550610de4565b60026004811115610d4c57610d4b6112f5565b5b826004811115610d5f57610d5e6112f5565b5b03610da85760036001600088815260200190815260200160002060040160006101000a81548160ff02191690836003811115610d9e57610d9d6112f5565b5b0217905550610de3565b6040517f08c379a0000000000000000000000000000000000000000000000000000000008152600401610dda90611a5e565b60405180910390fd5b5b5b60006001600088815260200190815260200160002060010160009054906101000a900473ffffffffffffffffffffffffffffffffffffffff169050856001600089815260200190815260200160002060010160006101000a81548173ffffffffffffffffffffffffffffffffffffffff021916908373ffffffffffffffffffffffffffffffffffffffff1602179055506001600088815260200190815260200160002060050160405180606001604052808873ffffffffffffffffffffffffffffffffffffffff168152602001846004811115610ec557610ec46112f5565b5b815260200142815250908060018154018082558091505060019003906000526020600020906002020160009091909190915060008201518160000160006101000a81548173ffffffffffffffffffffffffffffffffffffffff021916908373ffffffffffffffffffffffffffffffffffffffff16021790555060208201518160000160146101000a81548160ff02191690836004811115610f6957610f686112f5565b5b02179055506040820151816001015550508573ffffffffffffffffffffffffffffffffffffffff168173ffffffffffffffffffffffffffffffffffffffff16887f0b659dccc8eb950324170e8d9598af5ee04ee070883eb28651a96788721fbf8360405160405180910390a450505050505050565b6000806000806000856001600082815260200190815260200160002060040160019054906101000a900460ff1661104a576040517f08c379a0000000000000000000000000000000000000000000000000000000008152600401611041906117a7565b60405180910390fd5b600060016000898152602001908152602001600020905080600001548160010160009054906101000a900473ffffffffffffffffffffffffffffffffffffffff16826002015483600301548460040160009054906101000a900460ff1696509650965096509650505091939590929450565b600073ffffffffffffffffffffffffffffffffffffffff82169050919050565b6000819050919050565b60006111016110fc6110f7846110bc565b6110dc565b6110bc565b9050919050565b6000611113826110e6565b9050919050565b600061112582611108565b9050919050565b6111358161111a565b82525050565b6000602082019050611150600083018461112c565b92915050565b600080fd5b6000819050919050565b61116e8161115b565b811461117957600080fd5b50565b60008135905061118b81611165565b92915050565b600080604083850312156111a8576111a7611156565b5b60006111b68582860161117c565b92505060206111c78582860161117c565b9150509250929050565b60008115159050919050565b6111e6816111d1565b82525050565b600060208201905061120160008301846111dd565b92915050565b60006020828403121561121d5761121c611156565b5b600061122b8482850161117c565b91505092915050565b6000819050919050565b61124781611234565b82525050565b6000602082019050611262600083018461123e565b92915050565b61127181611234565b811461127c57600080fd5b50565b60008135905061128e81611268565b92915050565b600080604083850312156112ab576112aa611156565b5b60006112b98582860161117c565b92505060206112ca8582860161127f565b9150509250929050565b60006112df826110bc565b9050919050565b6112ef816112d4565b82525050565b7f4e487b7100000000000000000000000000000000000000000000000000000000600052602160045260246000fd5b60058110611335576113346112f5565b5b50565b600081905061134682611324565b919050565b600061135682611338565b9050919050565b6113668161134b565b82525050565b600060608201905061138160008301866112e6565b61138e602083018561135d565b61139b604083018461123e565b949350505050565b6113ac816112d4565b81146113b757600080fd5b50565b6000813590506113c9816113a3565b92915050565b600080604083850312156113e6576113e5611156565b5b60006113f48582860161117c565b9250506020611405858286016113ba565b9150509250929050565b6114188161115b565b82525050565b6004811061142f5761142e6112f5565b5b50565b60008190506114408261141e565b919050565b600061145082611432565b9050919050565b61146081611445565b82525050565b600060a08201905061147b600083018861140f565b61148860208301876112e6565b611495604083018661123e565b6114a2606083018561140f565b6114af6080830184611457565b9695505050505050565b60006020820190506114ce60008301846112e6565b92915050565b6114dd816111d1565b81146114e857600080fd5b50565b6000815190506114fa816114d4565b92915050565b60006020828403121561151657611515611156565b5b6000611524848285016114eb565b91505092915050565b600082825260208201905092915050565b7f4e6f74206d616e75666163747572657200000000000000000000000000000000600082015250565b600061157460108361152d565b915061157f8261153e565b602082019050919050565b600060208201905081810360008301526115a381611567565b9050919050565b7f496e76616c696420626174636849640000000000000000000000000000000000600082015250565b60006115e0600f8361152d565b91506115eb826115aa565b602082019050919050565b6000602082019050818103600083015261160f816115d3565b9050919050565b7f496e76616c6964206d6574616461746120686173680000000000000000000000600082015250565b600061164c60158361152d565b915061165782611616565b602082019050919050565b6000602082019050818103600083015261167b8161163f565b9050919050565b7f426174636820616c726561647920657869737473000000000000000000000000600082015250565b60006116b860148361152d565b91506116c382611682565b602082019050919050565b600060208201905081810360008301526116e7816116ab565b9050919050565b600581106116fb57600080fd5b50565b60008151905061170d816116ee565b92915050565b60006020828403121561172957611728611156565b5b6000611737848285016116fe565b91505092915050565b6000602082019050611755600083018461140f565b92915050565b7f426174636820646f6573206e6f74206578697374000000000000000000000000600082015250565b600061179160148361152d565b915061179c8261175b565b602082019050919050565b600060208201905081810360008301526117c081611784565b9050919050565b7f496e646578206f7574206f6620626f756e647300000000000000000000000000600082015250565b60006117fd60138361152d565b9150611808826117c7565b602082019050919050565b6000602082019050818103600083015261182c816117f0565b9050919050565b7f4e487b7100000000000000000000000000000000000000000000000000000000600052603260045260246000fd5b7f4e6f742063757272656e74206f776e6572000000000000000000000000000000600082015250565b600061189860118361152d565b91506118a382611862565b602082019050919050565b600060208201905081810360008301526118c78161188b565b9050919050565b7f496e76616c696420726563697069656e74000000000000000000000000000000600082015250565b600061190460118361152d565b915061190f826118ce565b602082019050919050565b60006020820190508181036000830152611933816118f7565b9050919050565b7f4d757374207472616e7366657220746f206469737472696275746f7200000000600082015250565b6000611970601c8361152d565b915061197b8261193a565b602082019050919050565b6000602082019050818103600083015261199f81611963565b9050919050565b7f4d757374207472616e7366657220746f20706861726d61637900000000000000600082015250565b60006119dc60198361152d565b91506119e7826119a6565b602082019050919050565b60006020820190508181036000830152611a0b816119cf565b9050919050565b7f496e76616c696420726f6c65207472616e736665720000000000000000000000600082015250565b6000611a4860158361152d565b9150611a5382611a12565b602082019050919050565b60006020820190508181036000830152611a7781611a3b565b905091905056fea2646970667358221220e1c009c93a357649c2a7a18092b1e497cf68b95ad789ca406f35356549cfc06864736f6c63430008140033",
  "linkReferences": {},
  "deployedLinkReferences": {}
}