{
  "_format": "hh-sol-artifact-1",
  "contractName": "RoleManager",
  "sourceName": "contracts/RoleManager.sol",
  "abi": [
    {
      "inputs": [],
      "stateMutability": "nonpayable",
      "type": "constructor"
    },
    {
      "anonymous": false,
      "inputs": [
        {
          "indexed": true,
          "internalType": "address",
          "name": "account",
          "type": "address"
        },
        {
          "indexed": false,
          "internalType": "enum RoleManager.Role",
          "name": "role",
          "type": "uint8"
        }
      ],
      "name": "RoleAssigned",
      "type": "event"
    },
    {
      "inputs": [],
      "name": "admin",
      "outputs": [
        {
          "internalType": "address",
          "name": "",
          "type": "address"
        }
      ],
      "stateMutability": "view",
      "type": "function"
    },
    {
      "inputs": [
        {
          "internalType": "address",
          "name": "_account",
          "type": "address"
        },
        {
          "internalType": "enum RoleManager.Role",
          "name": "_role",
          "type": "uint8"
        }
      ],
      "name": "assignRole",
      "outputs": [],
      "stateMutability": "nonpayable",
      "type": "function"
    },
    {
      "inputs": [
        {
          "internalType": "address",
          "name": "_account",
          "type": "address"
        }
      ],
      "name": "getRole",
      "outputs": [
        {
          "internalType": "enum RoleManager.Role",
          "name": "",
          "type": "uint8"
        }
      ],
      "stateMutability": "view",
      "type": "function"
    },
    {
      "inputs": [
        {
          "internalType": "address",
          "name": "_account",
          "type": "address"
        }
      ],
      "name": "isDistributor",
      "outputs": [
        {
          "internalType": "bool",
          "name": "",
          "type": "bool"
        }
      ],
      "stateMutability": "view",
      "type": "function"
    },
    {
      "inputs": [
        {
          "internalType": "address",
          "name": "_account",
          "type": "address"
        }
      ],
      "name": "isEndUser",
      "outputs": [
        {
          "internalType": "bool",
          "name": "",
          "type": "bool"
        }
      ],
      "stateMutability": "view",
      "type": "function"
    },
    {
      "inputs": [
        {
          "internalType": "address",
          "name": "_account",
          "type": "address"
        }
      ],
      "name": "isManufacturer",
      "outputs": [
        {
          "internalType": "bool",
          "name": "",
          "type": "bool"
        }
      ],
      "stateMutability": "view",
      "type": "function"
    },
    {
      "inputs": [
        {
          "internalType": "address",
          "name": "_account",
          "type": "address"
        }
      ],
      "name": "isPharmacy",
      "outputs": [
        {
          "internalType": "bool",
          "name": "",
          "type": "bool"
        }
      ],
      "stateMutability": "view",
      "type": "function"
    }
  ],
  "bytecode": "0x608060405234801561001057600080fd5b5033600160006101000a81548173ffffffffffffffffffffffffffffffffffffffff021916908373ffffffffffffffffffffffffffffffffffffffff1602179055506108ca806100616000396000f3fe608060405234801561001057600080fd5b506004361061007d5760003560e01c80638f0c86fa1161005b5780638f0c86fa146100fe578063c688a4781461012e578063dfb0fda31461015e578063f851a4401461018e5761007d565b806317d4a4911461008257806344276733146100b2578063630a195b146100e2575b600080fd5b61009c60048036038101906100979190610627565b6101ac565b6040516100a9919061066f565b60405180910390f35b6100cc60048036038101906100c79190610627565b610227565b6040516100d99190610701565b60405180910390f35b6100fc60048036038101906100f79190610741565b61027c565b005b61011860048036038101906101139190610627565b61042a565b604051610125919061066f565b60405180910390f35b61014860048036038101906101439190610627565b6104a6565b604051610155919061066f565b60405180910390f35b61017860048036038101906101739190610627565b610522565b604051610185919061066f565b60405180910390f35b61019661059e565b6040516101a39190610790565b60405180910390f35b60008060048111156101c1576101c061068a565b5b6000808473ffffffffffffffffffffffffffffffffffffffff1673ffffffffffffffffffffffffffffffffffffffff16815260200190815260200160002060009054906101000a900460ff16600481111561021f5761021e61068a565b5b149050919050565b60008060008373ffffffffffffffffffffffffffffffffffffffff1673ffffffffffffffffffffffffffffffffffffffff16815260200190815260200160002060009054906101000a900460ff169050919050565b600160009054906101000a900473ffffffffffffffffffffffffffffffffffffffff1673ffffffffffffffffffffffffffffffffffffffff163373ffffffffffffffffffffffffffffffffffffffff161461030c576040517f08c379a000000000000000000000000000000000000000000000000000000000815260040161030390610808565b60405180910390fd5b60048081111561031f5761031e61068a565b5b8160048111156103325761033161068a565b5b03610372576040517f08c379a000000000000000000000000000000000000000000000000000000000815260040161036990610874565b60405180910390fd5b806000808473ffffffffffffffffffffffffffffffffffffffff1673ffffffffffffffffffffffffffffffffffffffff16815260200190815260200160002060006101000a81548160ff021916908360048111156103d3576103d261068a565b5b02179055508173ffffffffffffffffffffffffffffffffffffffff167f4ac36fa53f167ceb85964be512e01de2a3b8bdb9862f917da079deeeff689b388260405161041e9190610701565b60405180910390a25050565b6000600160048111156104405761043f61068a565b5b6000808473ffffffffffffffffffffffffffffffffffffffff1673ffffffffffffffffffffffffffffffffffffffff16815260200190815260200160002060009054906101000a900460ff16600481111561049e5761049d61068a565b5b149050919050565b6000600360048111156104bc576104bb61068a565b5b6000808473ffffffffffffffffffffffffffffffffffffffff1673ffffffffffffffffffffffffffffffffffffffff16815260200190815260200160002060009054906101000a900460ff16600481111561051a5761051961068a565b5b149050919050565b6000600260048111156105385761053761068a565b5b6000808473ffffffffffffffffffffffffffffffffffffffff1673ffffffffffffffffffffffffffffffffffffffff16815260200190815260200160002060009054906101000a900460ff1660048111156105965761059561068a565b5b149050919050565b600160009054906101000a900473ffffffffffffffffffffffffffffffffffffffff1681565b600080fd5b600073ffffffffffffffffffffffffffffffffffffffff82169050919050565b60006105f4826105c9565b9050919050565b610604816105e9565b811461060f57600080fd5b50565b600081359050610621816105fb565b92915050565b60006020828403121561063d5761063c6105c4565b5b600061064b84828501610612565b91505092915050565b60008115159050919050565b61066981610654565b82525050565b60006020820190506106846000830184610660565b92915050565b7f4e487b7100000000000000000000000000000000000000000000000000000000600052602160045260246000fd5b600581106106ca576106c961068a565b5b50565b60008190506106db826106b9565b919050565b60006106eb826106cd565b9050919050565b6106fb816106e0565b82525050565b600060208201905061071660008301846106f2565b92915050565b6005811061072957600080fd5b50565b60008135905061073b8161071c565b92915050565b60008060408385031215610758576107576105c4565b5b600061076685828601610612565b92505060206107778582860161072c565b9150509250929050565b61078a816105e9565b82525050565b60006020820190506107a56000830184610781565b92915050565b600082825260208201905092915050565b7f4e6f742061646d696e0000000000000000000000000000000000000000000000600082015250565b60006107f26009836107ab565b91506107fd826107bc565b602082019050919050565b60006020820190508181036000830152610821816107e5565b9050919050565b7f496e76616c696420726f6c650000000000000000000000000000000000000000600082015250565b600061085e600c836107ab565b915061086982610828565b602082019050919050565b6000602082019050818103600083015261088d81610851565b905091905056fea26469706673582212202948107d437d2b6da2d3ccd42dc0d2968d0a1914403a66aded0566872f1c88b564736f6c63430008140033",
  "linkReferences": {},
  "deployedLinkReferences": {}
}