{"contracts/SupplyChain.sol":{"SupplyChain":{"abi":[{"inputs":[{"internalType":"address","name":"_roleManagerAddress","type":"address"}],"stateMutability":"nonpayable","type":"constructor"},{"anonymous":false,"inputs":[{"indexed":false,"internalType":"string","name":"productId","type":"string"},{"indexed":false,"internalType":"address","name":"from","type":"address"},{"indexed":false,"internalType":"address","name":"to","type":"address"}],"name":"OwnershipTransferred","type":"event"},{"anonymous":false,"inputs":[{"indexed":false,"internalType":"string","name":"productId","type":"string"},{"indexed":false,"internalType":"address","name":"manufacturer","type":"address"}],"name":"ProductCreated","type":"event"},{"anonymous":false,"inputs":[{"indexed":false,"internalType":"string","name":"productId","type":"string"},{"indexed":false,"internalType":"string","name":"location","type":"string"},{"indexed":false,"internalType":"int256","name":"temperature","type":"int256"}],"name":"TransportLogged","type":"event"},{"inputs":[{"internalType":"string","name":"_productId","type":"string"},{"internalType":"string","name":"_location","type":"string"},{"internalType":"int256","name":"_temperature","type":"int256"}],"name":"addTransportLog","outputs":[],"stateMutability":"nonpayable","type":"function"},{"inputs":[{"internalType":"string","name":"_productId","type":"string"},{"internalType":"uint256","name":"_manufactureDate","type":"uint256"},{"internalType":"uint256","name":"_expiryDate","type":"uint256"}],"name":"createProduct","outputs":[],"stateMutability":"nonpayable","type":"function"},{"inputs":[{"internalType":"string","name":"_productId","type":"string"}],"name":"getProduct","outputs":[{"internalType":"address","name":"manufacturer","type":"address"},{"internalType":"address","name":"currentOwner","type":"address"},{"internalType":"uint256","name":"manufactureDate","type":"uint256"},{"internalType":"uint256","name":"expiryDate","type":"uint256"},{"internalType":"enum SupplyChain.ProductState","name":"state","type":"uint8"}],"stateMutability":"view","type":"function"},{"inputs":[],"name":"roleManager","outputs":[{"internalType":"contract RoleManager","name":"","type":"address"}],"stateMutability":"view","type":"function"},{"inputs":[{"internalType":"string","name":"_productId","type":"string"},{"internalType":"address","name":"_to","type":"address"}],"name":"transferProduct","outputs":[],"stateMutability":"nonpayable","type":"function"}],"evm":{"bytecode":{"linkReferences":{},"object":"60806040523480156200001157600080fd5b5060405162001cba38038062001cba8339818101604052810190620000379190620000e8565b806000806101000a81548173ffffffffffffffffffffffffffffffffffffffff021916908373ffffffffffffffffffffffffffffffffffffffff160217905550506200011a565b600080fd5b600073ffffffffffffffffffffffffffffffffffffffff82169050919050565b6000620000b08262000083565b9050919050565b620000c281620000a3565b8114620000ce57600080fd5b50565b600081519050620000e281620000b7565b92915050565b6000602082840312156200010157620001006200007e565b5b60006200011184828501620000d1565b91505092915050565b611b90806200012a6000396000f3fe608060405234801561001057600080fd5b50600436106100565760003560e01c8062435da51461005b57806368111cce146100795780637bf12b1c146100ad57806390afcb9d146100c9578063af8d016c146100e5575b600080fd5b610063610101565b6040516100709190610dae565b60405180910390f35b610093600480360381019061008e9190610f23565b610125565b6040516100a495949392919061101d565b60405180910390f35b6100c760048036038101906100c2919061109c565b610239565b005b6100e360048036038101906100de9190611137565b610518565b005b6100ff60048036038101906100fa91906111c9565b610b3d565b005b60008054906101000a900473ffffffffffffffffffffffffffffffffffffffff1681565b60008060008060008560018160405161013e91906112c5565b908152602001604051809103902060050160019054906101000a900460ff1661019c576040517f08c379a000000000000000000000000000000000000000000000000000000000815260040161019390611339565b60405180910390fd5b60006001886040516101ae91906112c5565b908152602001604051809103902090508060010160009054906101000a900473ffffffffffffffffffffffffffffffffffffffff168160020160009054906101000a900473ffffffffffffffffffffffffffffffffffffffff16826003015483600401548460050160009054906101000a900460ff1696509650965096509650505091939590929450565b60008054906101000a900473ffffffffffffffffffffffffffffffffffffffff1673ffffffffffffffffffffffffffffffffffffffff166317d4a491336040518263ffffffff1660e01b81526004016102929190611359565b602060405180830381865afa1580156102af573d6000803e3d6000fd5b505050506040513d601f19601f820116820180604052508101906102d391906113ac565b610312576040517f08c379a000000000000000000000000000000000000000000000000000000000815260040161030990611425565b60405180910390fd5b60018360405161032291906112c5565b908152602001604051809103902060050160019054906101000a900460ff1615610381576040517f08c379a000000000000000000000000000000000000000000000000000000000815260040161037890611491565b60405180910390fd5b8181116103c3576040517f08c379a00000000000000000000000000000000000000000000000000000000081526004016103ba906114fd565b60405180910390fd5b60006001846040516103d591906112c5565b90815260200160405180910390209050838160000190816103f6919061171f565b50338160010160006101000a81548173ffffffffffffffffffffffffffffffffffffffff021916908373ffffffffffffffffffffffffffffffffffffffff160217905550338160020160006101000a81548173ffffffffffffffffffffffffffffffffffffffff021916908373ffffffffffffffffffffffffffffffffffffffff16021790555082816003018190555081816004018190555060008160050160006101000a81548160ff021916908360038111156104b7576104b6610fa6565b5b021790555060018160050160016101000a81548160ff0219169083151502179055507f6276b46249f3ef9f8582903c6f0d43109febb82b3ec9f4dbd15662bb71ec9c7b843360405161050a92919061182a565b60405180910390a150505050565b8160018160405161052991906112c5565b908152602001604051809103902060050160019054906101000a900460ff16610587576040517f08c379a000000000000000000000000000000000000000000000000000000000815260040161057e90611339565b60405180910390fd5b823373ffffffffffffffffffffffffffffffffffffffff166001826040516105af91906112c5565b908152602001604051809103902060020160009054906101000a900473ffffffffffffffffffffffffffffffffffffffff1673ffffffffffffffffffffffffffffffffffffffff1614610637576040517f08c379a000000000000000000000000000000000000000000000000000000000815260040161062e906118a6565b60405180910390fd5b60018460405161064791906112c5565b908152602001604051809103902060040154421061069a576040517f08c379a000000000000000000000000000000000000000000000000000000000815260040161069190611912565b60405180910390fd5b60008060009054906101000a900473ffffffffffffffffffffffffffffffffffffffff1673ffffffffffffffffffffffffffffffffffffffff166344276733336040518263ffffffff1660e01b81526004016106f69190611359565b602060405180830381865afa158015610713573d6000803e3d6000fd5b505050506040513d601f19601f820116820180604052508101906107379190611957565b905060008060009054906101000a900473ffffffffffffffffffffffffffffffffffffffff1673ffffffffffffffffffffffffffffffffffffffff166344276733866040518263ffffffff1660e01b81526004016107959190611359565b602060405180830381865afa1580156107b2573d6000803e3d6000fd5b505050506040513d601f19601f820116820180604052508101906107d69190611957565b9050600060048111156107ec576107eb610fa6565b5b8260048111156107ff576107fe610fa6565b5b036108b9576001600481111561081857610817610fa6565b5b81600481111561082b5761082a610fa6565b5b1461086b576040517f08c379a0000000000000000000000000000000000000000000000000000000008152600401610862906119d0565b60405180910390fd5b6001808760405161087c91906112c5565b908152602001604051809103902060050160006101000a81548160ff021916908360038111156108af576108ae610fa6565b5b0217905550610a53565b600160048111156108cd576108cc610fa6565b5b8260048111156108e0576108df610fa6565b5b0361099b57600260048111156108f9576108f8610fa6565b5b81600481111561090c5761090b610fa6565b5b1461094c576040517f08c379a000000000000000000000000000000000000000000000000000000000815260040161094390611a3c565b60405180910390fd5b600260018760405161095e91906112c5565b908152602001604051809103902060050160006101000a81548160ff0219169083600381111561099157610990610fa6565b5b0217905550610a52565b600260048111156109af576109ae610fa6565b5b8260048111156109c2576109c1610fa6565b5b03610a165760036001876040516109d991906112c5565b908152602001604051809103902060050160006101000a81548160ff02191690836003811115610a0c57610a0b610fa6565b5b0217905550610a51565b6040517f08c379a0000000000000000000000000000000000000000000000000000000008152600401610a4890611aa8565b60405180910390fd5b5b5b6000600187604051610a6591906112c5565b908152602001604051809103902060020160009054906101000a900473ffffffffffffffffffffffffffffffffffffffff16905085600188604051610aaa91906112c5565b908152602001604051809103902060020160006101000a81548173ffffffffffffffffffffffffffffffffffffffff021916908373ffffffffffffffffffffffffffffffffffffffff1602179055507f6840904f5b31827f74e1497360da245f56e530c8c3de3163a2d31f11493273c6878288604051610b2c93929190611ac8565b60405180910390a150505050505050565b82600181604051610b4e91906112c5565b908152602001604051809103902060050160019054906101000a900460ff16610bac576040517f08c379a0000000000000000000000000000000000000000000000000000000008152600401610ba390611339565b60405180910390fd5b833373ffffffffffffffffffffffffffffffffffffffff16600182604051610bd491906112c5565b908152602001604051809103902060020160009054906101000a900473ffffffffffffffffffffffffffffffffffffffff1673ffffffffffffffffffffffffffffffffffffffff1614610c5c576040517f08c379a0000000000000000000000000000000000000000000000000000000008152600401610c53906118a6565b60405180910390fd5b600185604051610c6c91906112c5565b908152602001604051809103902060060160405180606001604052808681526020018581526020014281525090806001815401808255809150506001900390600052602060002090600302016000909190919091506000820151816000019081610cd6919061171f565b50602082015181600101556040820151816002015550507fa48d50f11ab056ce7c0d1ca45d1cde09f8f239817c8d172ed1600909e2bf5114858585604051610d2093929190611b15565b60405180910390a15050505050565b600073ffffffffffffffffffffffffffffffffffffffff82169050919050565b6000819050919050565b6000610d74610d6f610d6a84610d2f565b610d4f565b610d2f565b9050919050565b6000610d8682610d59565b9050919050565b6000610d9882610d7b565b9050919050565b610da881610d8d565b82525050565b6000602082019050610dc36000830184610d9f565b92915050565b6000604051905090565b600080fd5b600080fd5b600080fd5b600080fd5b6000601f19601f8301169050919050565b7f4e487b7100000000000000000000000000000000000000000000000000000000600052604160045260246000fd5b610e3082610de7565b810181811067ffffffffffffffff82111715610e4f57610e4e610df8565b5b80604052505050565b6000610e62610dc9565b9050610e6e8282610e27565b919050565b600067ffffffffffffffff821115610e8e57610e8d610df8565b5b610e9782610de7565b9050602081019050919050565b82818337600083830152505050565b6000610ec6610ec184610e73565b610e58565b905082815260208101848484011115610ee257610ee1610de2565b5b610eed848285610ea4565b509392505050565b600082601f830112610f0a57610f09610ddd565b5b8135610f1a848260208601610eb3565b91505092915050565b600060208284031215610f3957610f38610dd3565b5b600082013567ffffffffffffffff811115610f5757610f56610dd8565b5b610f6384828501610ef5565b91505092915050565b6000610f7782610d2f565b9050919050565b610f8781610f6c565b82525050565b6000819050919050565b610fa081610f8d565b82525050565b7f4e487b7100000000000000000000000000000000000000000000000000000000600052602160045260246000fd5b60048110610fe657610fe5610fa6565b5b50565b6000819050610ff782610fd5565b919050565b600061100782610fe9565b9050919050565b61101781610ffc565b82525050565b600060a0820190506110326000830188610f7e565b61103f6020830187610f7e565b61104c6040830186610f97565b6110596060830185610f97565b611066608083018461100e565b9695505050505050565b61107981610f8d565b811461108457600080fd5b50565b60008135905061109681611070565b92915050565b6000806000606084860312156110b5576110b4610dd3565b5b600084013567ffffffffffffffff8111156110d3576110d2610dd8565b5b6110df86828701610ef5565b93505060206110f086828701611087565b925050604061110186828701611087565b9150509250925092565b61111481610f6c565b811461111f57600080fd5b50565b6000813590506111318161110b565b92915050565b6000806040838503121561114e5761114d610dd3565b5b600083013567ffffffffffffffff81111561116c5761116b610dd8565b5b61117885828601610ef5565b925050602061118985828601611122565b9150509250929050565b6000819050919050565b6111a681611193565b81146111b157600080fd5b50565b6000813590506111c38161119d565b92915050565b6000806000606084860312156111e2576111e1610dd3565b5b600084013567ffffffffffffffff811115611200576111ff610dd8565b5b61120c86828701610ef5565b935050602084013567ffffffffffffffff81111561122d5761122c610dd8565b5b61123986828701610ef5565b925050604061124a868287016111b4565b9150509250925092565b600081519050919050565b600081905092915050565b60005b8381101561128857808201518184015260208101905061126d565b60008484015250505050565b600061129f82611254565b6112a9818561125f565b93506112b981856020860161126a565b80840191505092915050565b60006112d18284611294565b915081905092915050565b600082825260208201905092915050565b7f50726f6475637420646f6573206e6f7420657869737400000000000000000000600082015250565b60006113236016836112dc565b915061132e826112ed565b602082019050919050565b6000602082019050818103600083015261135281611316565b9050919050565b600060208201905061136e6000830184610f7e565b92915050565b60008115159050919050565b61138981611374565b811461139457600080fd5b50565b6000815190506113a681611380565b92915050565b6000602082840312156113c2576113c1610dd3565b5b60006113d084828501611397565b91505092915050565b7f4e6f74206d616e75666163747572657200000000000000000000000000000000600082015250565b600061140f6010836112dc565b915061141a826113d9565b602082019050919050565b6000602082019050818103600083015261143e81611402565b9050919050565b7f50726f6475637420616c72656164792065786973747300000000000000000000600082015250565b600061147b6016836112dc565b915061148682611445565b602082019050919050565b600060208201905081810360008301526114aa8161146e565b9050919050565b7f496e76616c696420646174657300000000000000000000000000000000000000600082015250565b60006114e7600d836112dc565b91506114f2826114b1565b602082019050919050565b60006020820190508181036000830152611516816114da565b9050919050565b7f4e487b7100000000000000000000000000000000000000000000000000000000600052602260045260246000fd5b6000600282049050600182168061156457607f821691505b6020821081036115775761157661151d565b5b50919050565b60008190508160005260206000209050919050565b60006020601f8301049050919050565b600082821b905092915050565b6000600883026115df7fffffffffffffffffffffffffffffffffffffffffffffffffffffffffffffffff826115a2565b6115e986836115a2565b95508019841693508086168417925050509392505050565b600061161c61161761161284610f8d565b610d4f565b610f8d565b9050919050565b6000819050919050565b61163683611601565b61164a61164282611623565b8484546115af565b825550505050565b600090565b61165f611652565b61166a81848461162d565b505050565b5b8181101561168e57611683600082611657565b600181019050611670565b5050565b601f8211156116d3576116a48161157d565b6116ad84611592565b810160208510156116bc578190505b6116d06116c885611592565b83018261166f565b50505b505050565b600082821c905092915050565b60006116f6600019846008026116d8565b1980831691505092915050565b600061170f83836116e5565b9150826002028217905092915050565b61172882611254565b67ffffffffffffffff81111561174157611740610df8565b5b61174b825461154c565b611756828285611692565b600060209050601f8311600181146117895760008415611777578287015190505b6117818582611703565b8655506117e9565b601f1984166117978661157d565b60005b828110156117bf5784890151825560018201915060208501945060208101905061179a565b868310156117dc57848901516117d8601f8916826116e5565b8355505b6001600288020188555050505b505050505050565b60006117fc82611254565b61180681856112dc565b935061181681856020860161126a565b61181f81610de7565b840191505092915050565b6000604082019050818103600083015261184481856117f1565b90506118536020830184610f7e565b9392505050565b7f4e6f742063757272656e74206f776e6572000000000000000000000000000000600082015250565b60006118906011836112dc565b915061189b8261185a565b602082019050919050565b600060208201905081810360008301526118bf81611883565b9050919050565b7f50726f6475637420657870697265640000000000000000000000000000000000600082015250565b60006118fc600f836112dc565b9150611907826118c6565b602082019050919050565b6000602082019050818103600083015261192b816118ef565b9050919050565b6005811061193f57600080fd5b50565b60008151905061195181611932565b92915050565b60006020828403121561196d5761196c610dd3565b5b600061197b84828501611942565b91505092915050565b7f4d757374207472616e7366657220746f206469737472696275746f7200000000600082015250565b60006119ba601c836112dc565b91506119c582611984565b602082019050919050565b600060208201905081810360008301526119e9816119ad565b9050919050565b7f4d757374207472616e7366657220746f20706861726d61637900000000000000600082015250565b6000611a266019836112dc565b9150611a31826119f0565b602082019050919050565b60006020820190508181036000830152611a5581611a19565b9050919050565b7f496e76616c696420726f6c65207472616e736665720000000000000000000000600082015250565b6000611a926015836112dc565b9150611a9d82611a5c565b602082019050919050565b60006020820190508181036000830152611ac181611a85565b9050919050565b60006060820190508181036000830152611ae281866117f1565b9050611af16020830185610f7e565b611afe6040830184610f7e565b949350505050565b611b0f81611193565b82525050565b60006060820190508181036000830152611b2f81866117f1565b90508181036020830152611b4381856117f1565b9050611b526040830184611b06565b94935050505056fea2646970667358221220c109a3f5793c4c419ff88d34426ba6b87b096fcdc330bcb65a2e8f5bc32a35fc64736f6c63430008140033","opcodes":"PUSH1 0x80 PUSH1 0x40 MSTORE CALLVALUE DUP1 ISZERO PUSH3 0x11 JUMPI PUSH1 0x0 DUP1 REVERT JUMPDEST POP PUSH1 0x40 MLOAD PUSH3 0x1CBA CODESIZE SUB DUP1 PUSH3 0x1CBA DUP4 CODECOPY DUP2 DUP2 ADD PUSH1 0x40 MSTORE DUP2 ADD SWAP1 PUSH3 0x37 SWAP2 SWAP1 PUSH3 0xE8 JUMP JUMPDEST DUP1 PUSH1 0x0 DUP1 PUSH2 0x100 EXP DUP2 SLOAD DUP2 PUSH20 0xFFFFFFFFFFFFFFFFFFFFFFFFFFFFFFFFFFFFFFFF MUL NOT AND SWAP1 DUP4 PUSH20 0xFFFFFFFFFFFFFFFFFFFFFFFFFFFFFFFFFFFFFFFF AND MUL OR SWAP1 SSTORE POP POP PUSH3 0x11A JUMP JUMPDEST PUSH1 0x0 DUP1 REVERT JUMPDEST PUSH1 0x0 PUSH20 0xFFFFFFFFFFFFFFFFFFFFFFFFFFFFFFFFFFFFFFFF DUP3 AND SWAP1 POP SWAP2 SWAP1 POP JUMP JUMPDEST PUSH1 0x0 PUSH3 0xB0 DUP3 PUSH3 0x83 JUMP JUMPDEST SWAP1 POP SWAP2 SWAP1 POP JUMP JUMPDEST PUSH3 0xC2 DUP2 PUSH3 0xA3 JUMP JUMPDEST DUP2 EQ PUSH3 0xCE JUMPI PUSH1 0x0 DUP1 REVERT JUMPDEST POP JUMP JUMPDEST PUSH1 0x0 DUP2 MLOAD SWAP1 POP PUSH3 0xE2 DUP2 PUSH3 0xB7 JUMP JUMPDEST SWAP3 SWAP2 POP POP JUMP JUMPDEST PUSH1 0x0 PUSH1 0x20 DUP3 DUP5 SUB SLT ISZERO PUSH3 0x101 JUMPI PUSH3 0x100 PUSH3 0x7E JUMP JUMPDEST JUMPDEST PUSH1 0x0 PUSH3 0x111 DUP5 DUP3 DUP6 ADD PUSH3 0xD1 JUMP JUMPDEST SWAP2 POP POP SWAP3 SWAP2 POP POP JUMP JUMPDEST PUSH2 0x1B90 DUP1 PUSH3 0x12A PUSH1 0x0 CODECOPY PUSH1 0x0 RETURN INVALID PUSH1 0x80 PUSH1 0x40 MSTORE CALLVALUE DUP1 ISZERO PUSH2 0x10 JUMPI PUSH1 0x0 DUP1 REVERT JUMPDEST POP PUSH1 0x4 CALLDATASIZE LT PUSH2 0x56 JUMPI PUSH1 0x0 CALLDATALOAD PUSH1 0xE0 SHR DUP1 PUSH3 0x435DA5 EQ PUSH2 0x5B JUMPI DUP1 PUSH4 0x68111CCE EQ PUSH2 0x79 JUMPI DUP1 PUSH4 0x7BF12B1C EQ PUSH2 0xAD JUMPI DUP1 PUSH4 0x90AFCB9D EQ PUSH2 0xC9 JUMPI DUP1 PUSH4 0xAF8D016C EQ PUSH2 0xE5 JUMPI JUMPDEST PUSH1 0x0 DUP1 REVERT JUMPDEST PUSH2 0x63 PUSH2 0x101 JUMP JUMPDEST PUSH1 0x40 MLOAD PUSH2 0x70 SWAP2 SWAP1 PUSH2 0xDAE JUMP JUMPDEST PUSH1 0x40 MLOAD DUP1 SWAP2 SUB SWAP1 RETURN JUMPDEST PUSH2 0x93 PUSH1 0x4 DUP1 CALLDATASIZE SUB DUP2 ADD SWAP1 PUSH2 0x8E SWAP2 SWAP1 PUSH2 0xF23 JUMP JUMPDEST PUSH2 0x125 JUMP JUMPDEST PUSH1 0x40 MLOAD PUSH2 0xA4 SWAP6 SWAP5 SWAP4 SWAP3 SWAP2 SWAP1 PUSH2 0x101D JUMP JUMPDEST PUSH1 0x40 MLOAD DUP1 SWAP2 SUB SWAP1 RETURN JUMPDEST PUSH2 0xC7 PUSH1 0x4 DUP1 CALLDATASIZE SUB DUP2 ADD SWAP1 PUSH2 0xC2 SWAP2 SWAP1 PUSH2 0x109C JUMP JUMPDEST PUSH2 0x239 JUMP JUMPDEST STOP JUMPDEST PUSH2 0xE3 PUSH1 0x4 DUP1 CALLDATASIZE SUB DUP2 ADD SWAP1 PUSH2 0xDE SWAP2 SWAP1 PUSH2 0x1137 JUMP JUMPDEST PUSH2 0x518 JUMP JUMPDEST STOP JUMPDEST PUSH2 0xFF PUSH1 0x4 DUP1 CALLDATASIZE SUB DUP2 ADD SWAP1 PUSH2 0xFA SWAP2 SWAP1 PUSH2 0x11C9 JUMP JUMPDEST PUSH2 0xB3D JUMP JUMPDEST STOP JUMPDEST PUSH1 0x0 DUP1 SLOAD SWAP1 PUSH2 0x100 EXP SWAP1 DIV PUSH20 0xFFFFFFFFFFFFFFFFFFFFFFFFFFFFFFFFFFFFFFFF AND DUP2 JUMP JUMPDEST PUSH1 0x0 DUP1 PUSH1 0x0 DUP1 PUSH1 0x0 DUP6 PUSH1 0x1 DUP2 PUSH1 0x40 MLOAD PUSH2 0x13E SWAP2 SWAP1 PUSH2 0x12C5 JUMP JUMPDEST SWAP1 DUP2 MSTORE PUSH1 0x20 ADD PUSH1 0x40 MLOAD DUP1 SWAP2 SUB SWAP1 KECCAK256 PUSH1 0x5 ADD PUSH1 0x1 SWAP1 SLOAD SWAP1 PUSH2 0x100 EXP SWAP1 DIV PUSH1 0xFF AND PUSH2 0x19C JUMPI PUSH1 0x40 MLOAD PUSH32 0x8C379A000000000000000000000000000000000000000000000000000000000 DUP2 MSTORE PUSH1 0x4 ADD PUSH2 0x193 SWAP1 PUSH2 0x1339 JUMP JUMPDEST PUSH1 0x40 MLOAD DUP1 SWAP2 SUB SWAP1 REVERT JUMPDEST PUSH1 0x0 PUSH1 0x1 DUP9 PUSH1 0x40 MLOAD PUSH2 0x1AE SWAP2 SWAP1 PUSH2 0x12C5 JUMP JUMPDEST SWAP1 DUP2 MSTORE PUSH1 0x20 ADD PUSH1 0x40 MLOAD DUP1 SWAP2 SUB SWAP1 KECCAK256 SWAP1 POP DUP1 PUSH1 0x1 ADD PUSH1 0x0 SWAP1 SLOAD SWAP1 PUSH2 0x100 EXP SWAP1 DIV PUSH20 0xFFFFFFFFFFFFFFFFFFFFFFFFFFFFFFFFFFFFFFFF AND DUP2 PUSH1 0x2 ADD PUSH1 0x0 SWAP1 SLOAD SWAP1 PUSH2 0x100 EXP SWAP1 DIV PUSH20 0xFFFFFFFFFFFFFFFFFFFFFFFFFFFFFFFFFFFFFFFF AND DUP3 PUSH1 0x3 ADD SLOAD DUP4 PUSH1 0x4 ADD SLOAD DUP5 PUSH1 0x5 ADD PUSH1 0x0 SWAP1 SLOAD SWAP1 PUSH2 0x100 EXP SWAP1 DIV PUSH1 0xFF AND SWAP7 POP SWAP7 POP SWAP7 POP SWAP7 POP SWAP7 POP POP POP SWAP2 SWAP4 SWAP6 SWAP1 SWAP3 SWAP5 POP JUMP JUMPDEST PUSH1 0x0 DUP1 SLOAD SWAP1 PUSH2 0x100 EXP SWAP1 DIV PUSH20 0xFFFFFFFFFFFFFFFFFFFFFFFFFFFFFFFFFFFFFFFF AND PUSH20 0xFFFFFFFFFFFFFFFFFFFFFFFFFFFFFFFFFFFFFFFF AND PUSH4 0x17D4A491 CALLER PUSH1 0x40 MLOAD DUP3 PUSH4 0xFFFFFFFF AND PUSH1 0xE0 SHL DUP2 MSTORE PUSH1 0x4 ADD PUSH2 0x292 SWAP2 SWAP1 PUSH2 0x1359 JUMP JUMPDEST PUSH1 0x20 PUSH1 0x40 MLOAD DUP1 DUP4 SUB DUP2 DUP7 GAS STATICCALL ISZERO DUP1 ISZERO PUSH2 0x2AF JUMPI RETURNDATASIZE PUSH1 0x0 DUP1 RETURNDATACOPY RETURNDATASIZE PUSH1 0x0 REVERT JUMPDEST POP POP POP POP PUSH1 0x40 MLOAD RETURNDATASIZE PUSH1 0x1F NOT PUSH1 0x1F DUP3 ADD AND DUP3 ADD DUP1 PUSH1 0x40 MSTORE POP DUP2 ADD SWAP1 PUSH2 0x2D3 SWAP2 SWAP1 PUSH2 0x13AC JUMP JUMPDEST PUSH2 0x312 JUMPI PUSH1 0x40 MLOAD PUSH32 0x8C379A000000000000000000000000000000000000000000000000000000000 DUP2 MSTORE PUSH1 0x4 ADD PUSH2 0x309 SWAP1 PUSH2 0x1425 JUMP JUMPDEST PUSH1 0x40 MLOAD DUP1 SWAP2 SUB SWAP1 REVERT JUMPDEST PUSH1 0x1 DUP4 PUSH1 0x40 MLOAD PUSH2 0x322 SWAP2 SWAP1 PUSH2 0x12C5 JUMP JUMPDEST SWAP1 DUP2 MSTORE PUSH1 0x20 ADD PUSH1 0x40 MLOAD DUP1 SWAP2 SUB SWAP1 KECCAK256 PUSH1 0x5 ADD PUSH1 0x1 SWAP1 SLOAD SWAP1 PUSH2 0x100 EXP SWAP1 DIV PUSH1 0xFF AND ISZERO PUSH2 0x381 JUMPI PUSH1 0x40 MLOAD PUSH32 0x8C379A000000000000000000000000000000000000000000000000000000000 DUP2 MSTORE PUSH1 0x4 ADD PUSH2 0x378 SWAP1 PUSH2 0x1491 JUMP JUMPDEST PUSH1 0x40 MLOAD DUP1 SWAP2 SUB SWAP1 REVERT JUMPDEST DUP2 DUP2 GT PUSH2 0x3C3 JUMPI PUSH1 0x40 MLOAD PUSH32 0x8C379A000000000000000000000000000000000000000000000000000000000 DUP2 MSTORE PUSH1 0x4 ADD PUSH2 0x3BA SWAP1 PUSH2 0x14FD JUMP JUMPDEST PUSH1 0x40 MLOAD DUP1 SWAP2 SUB SWAP1 REVERT JUMPDEST PUSH1 0x0 PUSH1 0x1 DUP5 PUSH1 0x40 MLOAD PUSH2 0x3D5 SWAP2 SWAP1 PUSH2 0x12C5 JUMP JUMPDEST SWAP1 DUP2 MSTORE PUSH1 0x20 ADD PUSH1 0x40 MLOAD DUP1 SWAP2 SUB SWAP1 KECCAK256 SWAP1 POP DUP4 DUP2 PUSH1 0x0 ADD SWAP1 DUP2 PUSH2 0x3F6 SWAP2 SWAP1 PUSH2 0x171F JUMP JUMPDEST POP CALLER DUP2 PUSH1 0x1 ADD PUSH1 0x0 PUSH2 0x100 EXP DUP2 SLOAD DUP2 PUSH20 0xFFFFFFFFFFFFFFFFFFFFFFFFFFFFFFFFFFFFFFFF MUL NOT AND SWAP1 DUP4 PUSH20 0xFFFFFFFFFFFFFFFFFFFFFFFFFFFFFFFFFFFFFFFF AND MUL OR SWAP1 SSTORE POP CALLER DUP2 PUSH1 0x2 ADD PUSH1 0x0 PUSH2 0x100 EXP DUP2 SLOAD DUP2 PUSH20 0xFFFFFFFFFFFFFFFFFFFFFFFFFFFFFFFFFFFFFFFF MUL NOT AND SWAP1 DUP4 PUSH20 0xFFFFFFFFFFFFFFFFFFFFFFFFFFFFFFFFFFFFFFFF AND MUL OR SWAP1 SSTORE POP DUP3 DUP2 PUSH1 0x3 ADD DUP2 SWAP1 SSTORE POP DUP2 DUP2 PUSH1 0x4 ADD DUP2 SWAP1 SSTORE POP PUSH1 0x0 DUP2 PUSH1 0x5 ADD PUSH1 0x0 PUSH2 0x100 EXP DUP2 SLOAD DUP2 PUSH1 0xFF MUL NOT AND SWAP1 DUP4 PUSH1 0x3 DUP2 GT ISZERO PUSH2 0x4B7 JUMPI PUSH2 0x4B6 PUSH2 0xFA6 JUMP JUMPDEST JUMPDEST MUL OR SWAP1 SSTORE POP PUSH1 0x1 DUP2 PUSH1 0x5 ADD PUSH1 0x1 PUSH2 0x100 EXP DUP2 SLOAD DUP2 PUSH1 0xFF MUL NOT AND SWAP1 DUP4 ISZERO ISZERO MUL OR SWAP1 SSTORE POP PUSH32 0x6276B46249F3EF9F8582903C6F0D43109FEBB82B3EC9F4DBD15662BB71EC9C7B DUP5 CALLER PUSH1 0x40 MLOAD PUSH2 0x50A SWAP3 SWAP2 SWAP1 PUSH2 0x182A JUMP JUMPDEST PUSH1 0x40 MLOAD DUP1 SWAP2 SUB SWAP1 LOG1 POP POP POP POP JUMP JUMPDEST DUP2 PUSH1 0x1 DUP2 PUSH1 0x40 MLOAD PUSH2 0x529 SWAP2 SWAP1 PUSH2 0x12C5 JUMP JUMPDEST SWAP1 DUP2 MSTORE PUSH1 0x20 ADD PUSH1 0x40 MLOAD DUP1 SWAP2 SUB SWAP1 KECCAK256 PUSH1 0x5 ADD PUSH1 0x1 SWAP1 SLOAD SWAP1 PUSH2 0x100 EXP SWAP1 DIV PUSH1 0xFF AND PUSH2 0x587 JUMPI PUSH1 0x40 MLOAD PUSH32 0x8C379A000000000000000000000000000000000000000000000000000000000 DUP2 MSTORE PUSH1 0x4 ADD PUSH2 0x57E SWAP1 PUSH2 0x1339 JUMP JUMPDEST PUSH1 0x40 MLOAD DUP1 SWAP2 SUB SWAP1 REVERT JUMPDEST DUP3 CALLER PUSH20 0xFFFFFFFFFFFFFFFFFFFFFFFFFFFFFFFFFFFFFFFF AND PUSH1 0x1 DUP3 PUSH1 0x40 MLOAD PUSH2 0x5AF SWAP2 SWAP1 PUSH2 0x12C5 JUMP JUMPDEST SWAP1 DUP2 MSTORE PUSH1 0x20 ADD PUSH1 0x40 MLOAD DUP1 SWAP2 SUB SWAP1 KECCAK256 PUSH1 0x2 ADD PUSH1 0x0 SWAP1 SLOAD SWAP1 PUSH2 0x100 EXP SWAP1 DIV PUSH20 0xFFFFFFFFFFFFFFFFFFFFFFFFFFFFFFFFFFFFFFFF AND PUSH20 0xFFFFFFFFFFFFFFFFFFFFFFFFFFFFFFFFFFFFFFFF AND EQ PUSH2 0x637 JUMPI PUSH1 0x40 MLOAD PUSH32 0x8C379A000000000000000000000000000000000000000000000000000000000 DUP2 MSTORE PUSH1 0x4 ADD PUSH2 0x62E SWAP1 PUSH2 0x18A6 JUMP JUMPDEST PUSH1 0x40 MLOAD DUP1 SWAP2 SUB SWAP1 REVERT JUMPDEST PUSH1 0x1 DUP5 PUSH1 0x40 MLOAD PUSH2 0x647 SWAP2 SWAP1 PUSH2 0x12C5 JUMP JUMPDEST SWAP1 DUP2 MSTORE PUSH1 0x20 ADD PUSH1 0x40 MLOAD DUP1 SWAP2 SUB SWAP1 KECCAK256 PUSH1 0x4 ADD SLOAD TIMESTAMP LT PUSH2 0x69A JUMPI PUSH1 0x40 MLOAD PUSH32 0x8C379A000000000000000000000000000000000000000000000000000000000 DUP2 MSTORE PUSH1 0x4 ADD PUSH2 0x691 SWAP1 PUSH2 0x1912 JUMP JUMPDEST PUSH1 0x40 MLOAD DUP1 SWAP2 SUB SWAP1 REVERT JUMPDEST PUSH1 0x0 DUP1 PUSH1 0x0 SWAP1 SLOAD SWAP1 PUSH2 0x100 EXP SWAP1 DIV PUSH20 0xFFFFFFFFFFFFFFFFFFFFFFFFFFFFFFFFFFFFFFFF AND PUSH20 0xFFFFFFFFFFFFFFFFFFFFFFFFFFFFFFFFFFFFFFFF AND PUSH4 0x44276733 CALLER PUSH1 0x40 MLOAD DUP3 PUSH4 0xFFFFFFFF AND PUSH1 0xE0 SHL DUP2 MSTORE PUSH1 0x4 ADD PUSH2 0x6F6 SWAP2 SWAP1 PUSH2 0x1359 JUMP JUMPDEST PUSH1 0x20 PUSH1 0x40 MLOAD DUP1 DUP4 SUB DUP2 DUP7 GAS STATICCALL ISZERO DUP1 ISZERO PUSH2 0x713 JUMPI RETURNDATASIZE PUSH1 0x0 DUP1 RETURNDATACOPY RETURNDATASIZE PUSH1 0x0 REVERT JUMPDEST POP POP POP POP PUSH1 0x40 MLOAD RETURNDATASIZE PUSH1 0x1F NOT PUSH1 0x1F DUP3 ADD AND DUP3 ADD DUP1 PUSH1 0x40 MSTORE POP DUP2 ADD SWAP1 PUSH2 0x737 SWAP2 SWAP1 PUSH2 0x1957 JUMP JUMPDEST SWAP1 POP PUSH1 0x0 DUP1 PUSH1 0x0 SWAP1 SLOAD SWAP1 PUSH2 0x100 EXP SWAP1 DIV PUSH20 0xFFFFFFFFFFFFFFFFFFFFFFFFFFFFFFFFFFFFFFFF AND PUSH20 0xFFFFFFFFFFFFFFFFFFFFFFFFFFFFFFFFFFFFFFFF AND PUSH4 0x44276733 DUP7 PUSH1 0x40 MLOAD DUP3 PUSH4 0xFFFFFFFF AND PUSH1 0xE0 SHL DUP2 MSTORE PUSH1 0x4 ADD PUSH2 0x795 SWAP2 SWAP1 PUSH2 0x1359 JUMP JUMPDEST PUSH1 0x20 PUSH1 0x40 MLOAD DUP1 DUP4 SUB DUP2 DUP7 GAS STATICCALL ISZERO DUP1 ISZERO PUSH2 0x7B2 JUMPI RETURNDATASIZE PUSH1 0x0 DUP1 RETURNDATACOPY RETURNDATASIZE PUSH1 0x0 REVERT JUMPDEST POP POP POP POP PUSH1 0x40 MLOAD RETURNDATASIZE PUSH1 0x1F NOT PUSH1 0x1F DUP3 ADD AND DUP3 ADD DUP1 PUSH1 0x40 MSTORE POP DUP2 ADD SWAP1 PUSH2 0x7D6 SWAP2 SWAP1 PUSH2 0x1957 JUMP JUMPDEST SWAP1 POP PUSH1 0x0 PUSH1 0x4 DUP2 GT ISZERO PUSH2 0x7EC JUMPI PUSH2 0x7EB PUSH2 0xFA6 JUMP JUMPDEST JUMPDEST DUP3 PUSH1 0x4 DUP2 GT ISZERO PUSH2 0x7FF JUMPI PUSH2 0x7FE PUSH2 0xFA6 JUMP JUMPDEST JUMPDEST SUB PUSH2 0x8B9 JUMPI PUSH1 0x1 PUSH1 0x4 DUP2 GT ISZERO PUSH2 0x818 JUMPI PUSH2 0x817 PUSH2 0xFA6 JUMP JUMPDEST JUMPDEST DUP2 PUSH1 0x4 DUP2 GT ISZERO PUSH2 0x82B JUMPI PUSH2 0x82A PUSH2 0xFA6 JUMP JUMPDEST JUMPDEST EQ PUSH2 0x86B JUMPI PUSH1 0x40 MLOAD PUSH32 0x8C379A000000000000000000000000000000000000000000000000000000000 DUP2 MSTORE PUSH1 0x4 ADD PUSH2 0x862 SWAP1 PUSH2 0x19D0 JUMP JUMPDEST PUSH1 0x40 MLOAD DUP1 SWAP2 SUB SWAP1 REVERT JUMPDEST PUSH1 0x1 DUP1 DUP8 PUSH1 0x40 MLOAD PUSH2 0x87C SWAP2 SWAP1 PUSH2 0x12C5 JUMP JUMPDEST SWAP1 DUP2 MSTORE PUSH1 0x20 ADD PUSH1 0x40 MLOAD DUP1 SWAP2 SUB SWAP1 KECCAK256 PUSH1 0x5 ADD PUSH1 0x0 PUSH2 0x100 EXP DUP2 SLOAD DUP2 PUSH1 0xFF MUL NOT AND SWAP1 DUP4 PUSH1 0x3 DUP2 GT ISZERO PUSH2 0x8AF JUMPI PUSH2 0x8AE PUSH2 0xFA6 JUMP JUMPDEST JUMPDEST MUL OR SWAP1 SSTORE POP PUSH2 0xA53 JUMP JUMPDEST PUSH1 0x1 PUSH1 0x4 DUP2 GT ISZERO PUSH2 0x8CD JUMPI PUSH2 0x8CC PUSH2 0xFA6 JUMP JUMPDEST JUMPDEST DUP3 PUSH1 0x4 DUP2 GT ISZERO PUSH2 0x8E0 JUMPI PUSH2 0x8DF PUSH2 0xFA6 JUMP JUMPDEST JUMPDEST SUB PUSH2 0x99B JUMPI PUSH1 0x2 PUSH1 0x4 DUP2 GT ISZERO PUSH2 0x8F9 JUMPI PUSH2 0x8F8 PUSH2 0xFA6 JUMP JUMPDEST JUMPDEST DUP2 PUSH1 0x4 DUP2 GT ISZERO PUSH2 0x90C JUMPI PUSH2 0x90B PUSH2 0xFA6 JUMP JUMPDEST JUMPDEST EQ PUSH2 0x94C JUMPI PUSH1 0x40 MLOAD PUSH32 0x8C379A000000000000000000000000000000000000000000000000000000000 DUP2 MSTORE PUSH1 0x4 ADD PUSH2 0x943 SWAP1 PUSH2 0x1A3C JUMP JUMPDEST PUSH1 0x40 MLOAD DUP1 SWAP2 SUB SWAP1 REVERT JUMPDEST PUSH1 0x2 PUSH1 0x1 DUP8 PUSH1 0x40 MLOAD PUSH2 0x95E SWAP2 SWAP1 PUSH2 0x12C5 JUMP JUMPDEST SWAP1 DUP2 MSTORE PUSH1 0x20 ADD PUSH1 0x40 MLOAD DUP1 SWAP2 SUB SWAP1 KECCAK256 PUSH1 0x5 ADD PUSH1 0x0 PUSH2 0x100 EXP DUP2 SLOAD DUP2 PUSH1 0xFF MUL NOT AND SWAP1 DUP4 PUSH1 0x3 DUP2 GT ISZERO PUSH2 0x991 JUMPI PUSH2 0x990 PUSH2 0xFA6 JUMP JUMPDEST JUMPDEST MUL OR SWAP1 SSTORE POP PUSH2 0xA52 JUMP JUMPDEST PUSH1 0x2 PUSH1 0x4 DUP2 GT ISZERO PUSH2 0x9AF JUMPI PUSH2 0x9AE PUSH2 0xFA6 JUMP JUMPDEST JUMPDEST DUP3 PUSH1 0x4 DUP2 GT ISZERO PUSH2 0x9C2 JUMPI PUSH2 0x9C1 PUSH2 0xFA6 JUMP JUMPDEST JUMPDEST SUB PUSH2 0xA16 JUMPI PUSH1 0x3 PUSH1 0x1 DUP8 PUSH1 0x40 MLOAD PUSH2 0x9D9 SWAP2 SWAP1 PUSH2 0x12C5 JUMP JUMPDEST SWAP1 DUP2 MSTORE PUSH1 0x20 ADD PUSH1 0x40 MLOAD DUP1 SWAP2 SUB SWAP1 KECCAK256 PUSH1 0x5 ADD PUSH1 0x0 PUSH2 0x100 EXP DUP2 SLOAD DUP2 PUSH1 0xFF MUL NOT AND SWAP1 DUP4 PUSH1 0x3 DUP2 GT ISZERO PUSH2 0xA0C JUMPI PUSH2 0xA0B PUSH2 0xFA6 JUMP JUMPDEST JUMPDEST MUL OR SWAP1 SSTORE POP PUSH2 0xA51 JUMP JUMPDEST PUSH1 0x40 MLOAD PUSH32 0x8C379A000000000000000000000000000000000000000000000000000000000 DUP2 MSTORE PUSH1 0x4 ADD PUSH2 0xA48 SWAP1 PUSH2 0x1AA8 JUMP JUMPDEST PUSH1 0x40 MLOAD DUP1 SWAP2 SUB SWAP1 REVERT JUMPDEST JUMPDEST JUMPDEST PUSH1 0x0 PUSH1 0x1 DUP8 PUSH1 0x40 MLOAD PUSH2 0xA65 SWAP2 SWAP1 PUSH2 0x12C5 JUMP JUMPDEST SWAP1 DUP2 MSTORE PUSH1 0x20 ADD PUSH1 0x40 MLOAD DUP1 SWAP2 SUB SWAP1 KECCAK256 PUSH1 0x2 ADD PUSH1 0x0 SWAP1 SLOAD SWAP1 PUSH2 0x100 EXP SWAP1 DIV PUSH20 0xFFFFFFFFFFFFFFFFFFFFFFFFFFFFFFFFFFFFFFFF AND SWAP1 POP DUP6 PUSH1 0x1 DUP9 PUSH1 0x40 MLOAD PUSH2 0xAAA SWAP2 SWAP1 PUSH2 0x12C5 JUMP JUMPDEST SWAP1 DUP2 MSTORE PUSH1 0x20 ADD PUSH1 0x40 MLOAD DUP1 SWAP2 SUB SWAP1 KECCAK256 PUSH1 0x2 ADD PUSH1 0x0 PUSH2 0x100 EXP DUP2 SLOAD DUP2 PUSH20 0xFFFFFFFFFFFFFFFFFFFFFFFFFFFFFFFFFFFFFFFF MUL NOT AND SWAP1 DUP4 PUSH20 0xFFFFFFFFFFFFFFFFFFFFFFFFFFFFFFFFFFFFFFFF AND MUL OR SWAP1 SSTORE POP PUSH32 0x6840904F5B31827F74E1497360DA245F56E530C8C3DE3163A2D31F11493273C6 DUP8 DUP3 DUP9 PUSH1 0x40 MLOAD PUSH2 0xB2C SWAP4 SWAP3 SWAP2 SWAP1 PUSH2 0x1AC8 JUMP JUMPDEST PUSH1 0x40 MLOAD DUP1 SWAP2 SUB SWAP1 LOG1 POP POP POP POP POP POP POP JUMP JUMPDEST DUP3 PUSH1 0x1 DUP2 PUSH1 0x40 MLOAD PUSH2 0xB4E SWAP2 SWAP1 PUSH2 0x12C5 JUMP JUMPDEST SWAP1 DUP2 MSTORE PUSH1 0x20 ADD PUSH1 0x40 MLOAD DUP1 SWAP2 SUB SWAP1 KECCAK256 PUSH1 0x5 ADD PUSH1 0x1 SWAP1 SLOAD SWAP1 PUSH2 0x100 EXP SWAP1 DIV PUSH1 0xFF AND PUSH2 0xBAC JUMPI PUSH1 0x40 MLOAD PUSH32 0x8C379A000000000000000000000000000000000000000000000000000000000 DUP2 MSTORE PUSH1 0x4 ADD PUSH2 0xBA3 SWAP1 PUSH2 0x1339 JUMP JUMPDEST PUSH1 0x40 MLOAD DUP1 SWAP2 SUB SWAP1 REVERT JUMPDEST DUP4 CALLER PUSH20 0xFFFFFFFFFFFFFFFFFFFFFFFFFFFFFFFFFFFFFFFF AND PUSH1 0x1 DUP3 PUSH1 0x40 MLOAD PUSH2 0xBD4 SWAP2 SWAP1 PUSH2 0x12C5 JUMP JUMPDEST SWAP1 DUP2 MSTORE PUSH1 0x20 ADD PUSH1 0x40 MLOAD DUP1 SWAP2 SUB SWAP1 KECCAK256 PUSH1 0x2 ADD PUSH1 0x0 SWAP1 SLOAD SWAP1 PUSH2 0x100 EXP SWAP1 DIV PUSH20 0xFFFFFFFFFFFFFFFFFFFFFFFFFFFFFFFFFFFFFFFF AND PUSH20 0xFFFFFFFFFFFFFFFFFFFFFFFFFFFFFFFFFFFFFFFF AND EQ PUSH2 0xC5C JUMPI PUSH1 0x40 MLOAD PUSH32 0x8C379A000000000000000000000000000000000000000000000000000000000 DUP2 MSTORE PUSH1 0x4 ADD PUSH2 0xC53 SWAP1 PUSH2 0x18A6 JUMP JUMPDEST PUSH1 0x40 MLOAD DUP1 SWAP2 SUB SWAP1 REVERT JUMPDEST PUSH1 0x1 DUP6 PUSH1 0x40 MLOAD PUSH2 0xC6C SWAP2 SWAP1 PUSH2 0x12C5 JUMP JUMPDEST SWAP1 DUP2 MSTORE PUSH1 0x20 ADD PUSH1 0x40 MLOAD DUP1 SWAP2 SUB SWAP1 KECCAK256 PUSH1 0x6 ADD PUSH1 0x40 MLOAD DUP1 PUSH1 0x60 ADD PUSH1 0x40 MSTORE DUP1 DUP7 DUP2 MSTORE PUSH1 0x20 ADD DUP6 DUP2 MSTORE PUSH1 0x20 ADD TIMESTAMP DUP2 MSTORE POP SWAP1 DUP1 PUSH1 0x1 DUP2 SLOAD ADD DUP1 DUP3 SSTORE DUP1 SWAP2 POP POP PUSH1 0x1 SWAP1 SUB SWAP1 PUSH1 0x0 MSTORE PUSH1 0x20 PUSH1 0x0 KECCAK256 SWAP1 PUSH1 0x3 MUL ADD PUSH1 0x0 SWAP1 SWAP2 SWAP1 SWAP2 SWAP1 SWAP2 POP PUSH1 0x0 DUP3 ADD MLOAD DUP2 PUSH1 0x0 ADD SWAP1 DUP2 PUSH2 0xCD6 SWAP2 SWAP1 PUSH2 0x171F JUMP JUMPDEST POP PUSH1 0x20 DUP3 ADD MLOAD DUP2 PUSH1 0x1 ADD SSTORE PUSH1 0x40 DUP3 ADD MLOAD DUP2 PUSH1 0x2 ADD SSTORE POP POP PUSH32 0xA48D50F11AB056CE7C0D1CA45D1CDE09F8F239817C8D172ED1600909E2BF5114 DUP6 DUP6 DUP6 PUSH1 0x40 MLOAD PUSH2 0xD20 SWAP4 SWAP3 SWAP2 SWAP1 PUSH2 0x1B15 JUMP JUMPDEST PUSH1 0x40 MLOAD DUP1 SWAP2 SUB SWAP1 LOG1 POP POP POP POP POP JUMP JUMPDEST PUSH1 0x0 PUSH20 0xFFFFFFFFFFFFFFFFFFFFFFFFFFFFFFFFFFFFFFFF DUP3 AND SWAP1 POP SWAP2 SWAP1 POP JUMP JUMPDEST PUSH1 0x0 DUP2 SWAP1 POP SWAP2 SWAP1 POP JUMP JUMPDEST PUSH1 0x0 PUSH2 0xD74 PUSH2 0xD6F PUSH2 0xD6A DUP5 PUSH2 0xD2F JUMP JUMPDEST PUSH2 0xD4F JUMP JUMPDEST PUSH2 0xD2F JUMP JUMPDEST SWAP1 POP SWAP2 SWAP1 POP JUMP JUMPDEST PUSH1 0x0 PUSH2 0xD86 DUP3 PUSH2 0xD59 JUMP JUMPDEST SWAP1 POP SWAP2 SWAP1 POP JUMP JUMPDEST PUSH1 0x0 PUSH2 0xD98 DUP3 PUSH2 0xD7B JUMP JUMPDEST SWAP1 POP SWAP2 SWAP1 POP JUMP JUMPDEST PUSH2 0xDA8 DUP2 PUSH2 0xD8D JUMP JUMPDEST DUP3 MSTORE POP POP JUMP JUMPDEST PUSH1 0x0 PUSH1 0x20 DUP3 ADD SWAP1 POP PUSH2 0xDC3 PUSH1 0x0 DUP4 ADD DUP5 PUSH2 0xD9F JUMP JUMPDEST SWAP3 SWAP2 POP POP JUMP JUMPDEST PUSH1 0x0 PUSH1 0x40 MLOAD SWAP1 POP SWAP1 JUMP JUMPDEST PUSH1 0x0 DUP1 REVERT JUMPDEST PUSH1 0x0 DUP1 REVERT JUMPDEST PUSH1 0x0 DUP1 REVERT JUMPDEST PUSH1 0x0 DUP1 REVERT JUMPDEST PUSH1 0x0 PUSH1 0x1F NOT PUSH1 0x1F DUP4 ADD AND SWAP1 POP SWAP2 SWAP1 POP JUMP JUMPDEST PUSH32 0x4E487B7100000000000000000000000000000000000000000000000000000000 PUSH1 0x0 MSTORE PUSH1 0x41 PUSH1 0x4 MSTORE PUSH1 0x24 PUSH1 0x0 REVERT JUMPDEST PUSH2 0xE30 DUP3 PUSH2 0xDE7 JUMP JUMPDEST DUP2 ADD DUP2 DUP2 LT PUSH8 0xFFFFFFFFFFFFFFFF DUP3 GT OR ISZERO PUSH2 0xE4F JUMPI PUSH2 0xE4E PUSH2 0xDF8 JUMP JUMPDEST JUMPDEST DUP1 PUSH1 0x40 MSTORE POP POP POP JUMP JUMPDEST PUSH1 0x0 PUSH2 0xE62 PUSH2 0xDC9 JUMP JUMPDEST SWAP1 POP PUSH2 0xE6E DUP3 DUP3 PUSH2 0xE27 JUMP JUMPDEST SWAP2 SWAP1 POP JUMP JUMPDEST PUSH1 0x0 PUSH8 0xFFFFFFFFFFFFFFFF DUP3 GT ISZERO PUSH2 0xE8E JUMPI PUSH2 0xE8D PUSH2 0xDF8 JUMP JUMPDEST JUMPDEST PUSH2 0xE97 DUP3 PUSH2 0xDE7 JUMP JUMPDEST SWAP1 POP PUSH1 0x20 DUP2 ADD SWAP1 POP SWAP2 SWAP1 POP JUMP JUMPDEST DUP3 DUP2 DUP4 CALLDATACOPY PUSH1 0x0 DUP4 DUP4 ADD MSTORE POP POP POP JUMP JUMPDEST PUSH1 0x0 PUSH2 0xEC6 PUSH2 0xEC1 DUP5 PUSH2 0xE73 JUMP JUMPDEST PUSH2 0xE58 JUMP JUMPDEST SWAP1 POP DUP3 DUP2 MSTORE PUSH1 0x20 DUP2 ADD DUP5 DUP5 DUP5 ADD GT ISZERO PUSH2 0xEE2 JUMPI PUSH2 0xEE1 PUSH2 0xDE2 JUMP JUMPDEST JUMPDEST PUSH2 0xEED DUP5 DUP3 DUP6 PUSH2 0xEA4 JUMP JUMPDEST POP SWAP4 SWAP3 POP POP POP JUMP JUMPDEST PUSH1 0x0 DUP3 PUSH1 0x1F DUP4 ADD SLT PUSH2 0xF0A JUMPI PUSH2 0xF09 PUSH2 0xDDD JUMP JUMPDEST JUMPDEST DUP2 CALLDATALOAD PUSH2 0xF1A DUP5 DUP3 PUSH1 0x20 DUP7 ADD PUSH2 0xEB3 JUMP JUMPDEST SWAP2 POP POP SWAP3 SWAP2 POP POP JUMP JUMPDEST PUSH1 0x0 PUSH1 0x20 DUP3 DUP5 SUB SLT ISZERO PUSH2 0xF39 JUMPI PUSH2 0xF38 PUSH2 0xDD3 JUMP JUMPDEST JUMPDEST PUSH1 0x0 DUP3 ADD CALLDATALOAD PUSH8 0xFFFFFFFFFFFFFFFF DUP2 GT ISZERO PUSH2 0xF57 JUMPI PUSH2 0xF56 PUSH2 0xDD8 JUMP JUMPDEST JUMPDEST PUSH2 0xF63 DUP5 DUP3 DUP6 ADD PUSH2 0xEF5 JUMP JUMPDEST SWAP2 POP POP SWAP3 SWAP2 POP POP JUMP JUMPDEST PUSH1 0x0 PUSH2 0xF77 DUP3 PUSH2 0xD2F JUMP JUMPDEST SWAP1 POP SWAP2 SWAP1 POP JUMP JUMPDEST PUSH2 0xF87 DUP2 PUSH2 0xF6C JUMP JUMPDEST DUP3 MSTORE POP POP JUMP JUMPDEST PUSH1 0x0 DUP2 SWAP1 POP SWAP2 SWAP1 POP JUMP JUMPDEST PUSH2 0xFA0 DUP2 PUSH2 0xF8D JUMP JUMPDEST DUP3 MSTORE POP POP JUMP JUMPDEST PUSH32 0x4E487B7100000000000000000000000000000000000000000000000000000000 PUSH1 0x0 MSTORE PUSH1 0x21 PUSH1 0x4 MSTORE PUSH1 0x24 PUSH1 0x0 REVERT JUMPDEST PUSH1 0x4 DUP2 LT PUSH2 0xFE6 JUMPI PUSH2 0xFE5 PUSH2 0xFA6 JUMP JUMPDEST JUMPDEST POP JUMP JUMPDEST PUSH1 0x0 DUP2 SWAP1 POP PUSH2 0xFF7 DUP3 PUSH2 0xFD5 JUMP JUMPDEST SWAP2 SWAP1 POP JUMP JUMPDEST PUSH1 0x0 PUSH2 0x1007 DUP3 PUSH2 0xFE9 JUMP JUMPDEST SWAP1 POP SWAP2 SWAP1 POP JUMP JUMPDEST PUSH2 0x1017 DUP2 PUSH2 0xFFC JUMP JUMPDEST DUP3 MSTORE POP POP JUMP JUMPDEST PUSH1 0x0 PUSH1 0xA0 DUP3 ADD SWAP1 POP PUSH2 0x1032 PUSH1 0x0 DUP4 ADD DUP9 PUSH2 0xF7E JUMP JUMPDEST PUSH2 0x103F PUSH1 0x20 DUP4 ADD DUP8 PUSH2 0xF7E JUMP JUMPDEST PUSH2 0x104C PUSH1 0x40 DUP4 ADD DUP7 PUSH2 0xF97 JUMP JUMPDEST PUSH2 0x1059 PUSH1 0x60 DUP4 ADD DUP6 PUSH2 0xF97 JUMP JUMPDEST PUSH2 0x1066 PUSH1 0x80 DUP4 ADD DUP5 PUSH2 0x100E JUMP JUMPDEST SWAP7 SWAP6 POP POP POP POP POP POP JUMP JUMPDEST PUSH2 0x1079 DUP2 PUSH2 0xF8D JUMP JUMPDEST DUP2 EQ PUSH2 0x1084 JUMPI PUSH1 0x0 DUP1 REVERT JUMPDEST POP JUMP JUMPDEST PUSH1 0x0 DUP2 CALLDATALOAD SWAP1 POP PUSH2 0x1096 DUP2 PUSH2 0x1070 JUMP JUMPDEST SWAP3 SWAP2 POP POP JUMP JUMPDEST PUSH1 0x0 DUP1 PUSH1 0x0 PUSH1 0x60 DUP5 DUP7 SUB SLT ISZERO PUSH2 0x10B5 JUMPI PUSH2 0x10B4 PUSH2 0xDD3 JUMP JUMPDEST JUMPDEST PUSH1 0x0 DUP5 ADD CALLDATALOAD PUSH8 0xFFFFFFFFFFFFFFFF DUP2 GT ISZERO PUSH2 0x10D3 JUMPI PUSH2 0x10D2 PUSH2 0xDD8 JUMP JUMPDEST JUMPDEST PUSH2 0x10DF DUP7 DUP3 DUP8 ADD PUSH2 0xEF5 JUMP JUMPDEST SWAP4 POP POP PUSH1 0x20 PUSH2 0x10F0 DUP7 DUP3 DUP8 ADD PUSH2 0x1087 JUMP JUMPDEST SWAP3 POP POP PUSH1 0x40 PUSH2 0x1101 DUP7 DUP3 DUP8 ADD PUSH2 0x1087 JUMP JUMPDEST SWAP2 POP POP SWAP3 POP SWAP3 POP SWAP3 JUMP JUMPDEST PUSH2 0x1114 DUP2 PUSH2 0xF6C JUMP JUMPDEST DUP2 EQ PUSH2 0x111F JUMPI PUSH1 0x0 DUP1 REVERT JUMPDEST POP JUMP JUMPDEST PUSH1 0x0 DUP2 CALLDATALOAD SWAP1 POP PUSH2 0x1131 DUP2 PUSH2 0x110B JUMP JUMPDEST SWAP3 SWAP2 POP POP JUMP JUMPDEST PUSH1 0x0 DUP1 PUSH1 0x40 DUP4 DUP6 SUB SLT ISZERO PUSH2 0x114E JUMPI PUSH2 0x114D PUSH2 0xDD3 JUMP JUMPDEST JUMPDEST PUSH1 0x0 DUP4 ADD CALLDATALOAD PUSH8 0xFFFFFFFFFFFFFFFF DUP2 GT ISZERO PUSH2 0x116C JUMPI PUSH2 0x116B PUSH2 0xDD8 JUMP JUMPDEST JUMPDEST PUSH2 0x1178 DUP6 DUP3 DUP7 ADD PUSH2 0xEF5 JUMP JUMPDEST SWAP3 POP POP PUSH1 0x20 PUSH2 0x1189 DUP6 DUP3 DUP7 ADD PUSH2 0x1122 JUMP JUMPDEST SWAP2 POP POP SWAP3 POP SWAP3 SWAP1 POP JUMP JUMPDEST PUSH1 0x0 DUP2 SWAP1 POP SWAP2 SWAP1 POP JUMP JUMPDEST PUSH2 0x11A6 DUP2 PUSH2 0x1193 JUMP JUMPDEST DUP2 EQ PUSH2 0x11B1 JUMPI PUSH1 0x0 DUP1 REVERT JUMPDEST POP JUMP JUMPDEST PUSH1 0x0 DUP2 CALLDATALOAD SWAP1 POP PUSH2 0x11C3 DUP2 PUSH2 0x119D JUMP JUMPDEST SWAP3 SWAP2 POP POP JUMP JUMPDEST PUSH1 0x0 DUP1 PUSH1 0x0 PUSH1 0x60 DUP5 DUP7 SUB SLT ISZERO PUSH2 0x11E2 JUMPI PUSH2 0x11E1 PUSH2 0xDD3 JUMP JUMPDEST JUMPDEST PUSH1 0x0 DUP5 ADD CALLDATALOAD PUSH8 0xFFFFFFFFFFFFFFFF DUP2 GT ISZERO PUSH2 0x1200 JUMPI PUSH2 0x11FF PUSH2 0xDD8 JUMP JUMPDEST JUMPDEST PUSH2 0x120C DUP7 DUP3 DUP8 ADD PUSH2 0xEF5 JUMP JUMPDEST SWAP4 POP POP PUSH1 0x20 DUP5 ADD CALLDATALOAD PUSH8 0xFFFFFFFFFFFFFFFF DUP2 GT ISZERO PUSH2 0x122D JUMPI PUSH2 0x122C PUSH2 0xDD8 JUMP JUMPDEST JUMPDEST PUSH2 0x1239 DUP7 DUP3 DUP8 ADD PUSH2 0xEF5 JUMP JUMPDEST SWAP3 POP POP PUSH1 0x40 PUSH2 0x124A DUP7 DUP3 DUP8 ADD PUSH2 0x11B4 JUMP JUMPDEST SWAP2 POP POP SWAP3 POP SWAP3 POP SWAP3 JUMP JUMPDEST PUSH1 0x0 DUP2 MLOAD SWAP1 POP SWAP2 SWAP1 POP JUMP JUMPDEST PUSH1 0x0 DUP2 SWAP1 POP SWAP3 SWAP2 POP POP JUMP JUMPDEST PUSH1 0x0 JUMPDEST DUP4 DUP2 LT ISZERO PUSH2 0x1288 JUMPI DUP1 DUP3 ADD MLOAD DUP2 DUP5 ADD MSTORE PUSH1 0x20 DUP2 ADD SWAP1 POP PUSH2 0x126D JUMP JUMPDEST PUSH1 0x0 DUP5 DUP5 ADD MSTORE POP POP POP POP JUMP JUMPDEST PUSH1 0x0 PUSH2 0x129F DUP3 PUSH2 0x1254 JUMP JUMPDEST PUSH2 0x12A9 DUP2 DUP6 PUSH2 0x125F JUMP JUMPDEST SWAP4 POP PUSH2 0x12B9 DUP2 DUP6 PUSH1 0x20 DUP7 ADD PUSH2 0x126A JUMP JUMPDEST DUP1 DUP5 ADD SWAP2 POP POP SWAP3 SWAP2 POP POP JUMP JUMPDEST PUSH1 0x0 PUSH2 0x12D1 DUP3 DUP5 PUSH2 0x1294 JUMP JUMPDEST SWAP2 POP DUP2 SWAP1 POP SWAP3 SWAP2 POP POP JUMP JUMPDEST PUSH1 0x0 DUP3 DUP3 MSTORE PUSH1 0x20 DUP3 ADD SWAP1 POP SWAP3 SWAP2 POP POP JUMP JUMPDEST PUSH32 0x50726F6475637420646F6573206E6F7420657869737400000000000000000000 PUSH1 0x0 DUP3 ADD MSTORE POP JUMP JUMPDEST PUSH1 0x0 PUSH2 0x1323 PUSH1 0x16 DUP4 PUSH2 0x12DC JUMP JUMPDEST SWAP2 POP PUSH2 0x132E DUP3 PUSH2 0x12ED JUMP JUMPDEST PUSH1 0x20 DUP3 ADD SWAP1 POP SWAP2 SWAP1 POP JUMP JUMPDEST PUSH1 0x0 PUSH1 0x20 DUP3 ADD SWAP1 POP DUP2 DUP2 SUB PUSH1 0x0 DUP4 ADD MSTORE PUSH2 0x1352 DUP2 PUSH2 0x1316 JUMP JUMPDEST SWAP1 POP SWAP2 SWAP1 POP JUMP JUMPDEST PUSH1 0x0 PUSH1 0x20 DUP3 ADD SWAP1 POP PUSH2 0x136E PUSH1 0x0 DUP4 ADD DUP5 PUSH2 0xF7E JUMP JUMPDEST SWAP3 SWAP2 POP POP JUMP JUMPDEST PUSH1 0x0 DUP2 ISZERO ISZERO SWAP1 POP SWAP2 SWAP1 POP JUMP JUMPDEST PUSH2 0x1389 DUP2 PUSH2 0x1374 JUMP JUMPDEST DUP2 EQ PUSH2 0x1394 JUMPI PUSH1 0x0 DUP1 REVERT JUMPDEST POP JUMP JUMPDEST PUSH1 0x0 DUP2 MLOAD SWAP1 POP PUSH2 0x13A6 DUP2 PUSH2 0x1380 JUMP JUMPDEST SWAP3 SWAP2 POP POP JUMP JUMPDEST PUSH1 0x0 PUSH1 0x20 DUP3 DUP5 SUB SLT ISZERO PUSH2 0x13C2 JUMPI PUSH2 0x13C1 PUSH2 0xDD3 JUMP JUMPDEST JUMPDEST PUSH1 0x0 PUSH2 0x13D0 DUP5 DUP3 DUP6 ADD PUSH2 0x1397 JUMP JUMPDEST SWAP2 POP POP SWAP3 SWAP2 POP POP JUMP JUMPDEST PUSH32 0x4E6F74206D616E75666163747572657200000000000000000000000000000000 PUSH1 0x0 DUP3 ADD MSTORE POP JUMP JUMPDEST PUSH1 0x0 PUSH2 0x140F PUSH1 0x10 DUP4 PUSH2 0x12DC JUMP JUMPDEST SWAP2 POP PUSH2 0x141A DUP3 PUSH2 0x13D9 JUMP JUMPDEST PUSH1 0x20 DUP3 ADD SWAP1 POP SWAP2 SWAP1 POP JUMP JUMPDEST PUSH1 0x0 PUSH1 0x20 DUP3 ADD SWAP1 POP DUP2 DUP2 SUB PUSH1 0x0 DUP4 ADD MSTORE PUSH2 0x143E DUP2 PUSH2 0x1402 JUMP JUMPDEST SWAP1 POP SWAP2 SWAP1 POP JUMP JUMPDEST PUSH32 0x50726F6475637420616C72656164792065786973747300000000000000000000 PUSH1 0x0 DUP3 ADD MSTORE POP JUMP JUMPDEST PUSH1 0x0 PUSH2 0x147B PUSH1 0x16 DUP4 PUSH2 0x12DC JUMP JUMPDEST SWAP2 POP PUSH2 0x1486 DUP3 PUSH2 0x1445 JUMP JUMPDEST PUSH1 0x20 DUP3 ADD SWAP1 POP SWAP2 SWAP1 POP JUMP JUMPDEST PUSH1 0x0 PUSH1 0x20 DUP3 ADD SWAP1 POP DUP2 DUP2 SUB PUSH1 0x0 DUP4 ADD MSTORE PUSH2 0x14AA DUP2 PUSH2 0x146E JUMP JUMPDEST SWAP1 POP SWAP2 SWAP1 POP JUMP JUMPDEST PUSH32 0x496E76616C696420646174657300000000000000000000000000000000000000 PUSH1 0x0 DUP3 ADD MSTORE POP JUMP JUMPDEST PUSH1 0x0 PUSH2 0x14E7 PUSH1 0xD DUP4 PUSH2 0x12DC JUMP JUMPDEST SWAP2 POP PUSH2 0x14F2 DUP3 PUSH2 0x14B1 JUMP JUMPDEST PUSH1 0x20 DUP3 ADD SWAP1 POP SWAP2 SWAP1 POP JUMP JUMPDEST PUSH1 0x0 PUSH1 0x20 DUP3 ADD SWAP1 POP DUP2 DUP2 SUB PUSH1 0x0 DUP4 ADD MSTORE PUSH2 0x1516 DUP2 PUSH2 0x14DA JUMP JUMPDEST SWAP1 POP SWAP2 SWAP1 POP JUMP JUMPDEST PUSH32 0x4E487B7100000000000000000000000000000000000000000000000000000000 PUSH1 0x0 MSTORE PUSH1 0x22 PUSH1 0x4 MSTORE PUSH1 0x24 PUSH1 0x0 REVERT JUMPDEST PUSH1 0x0 PUSH1 0x2 DUP3 DIV SWAP1 POP PUSH1 0x1 DUP3 AND DUP1 PUSH2 0x1564 JUMPI PUSH1 0x7F DUP3 AND SWAP2 POP JUMPDEST PUSH1 0x20 DUP3 LT DUP2 SUB PUSH2 0x1577 JUMPI PUSH2 0x1576 PUSH2 0x151D JUMP JUMPDEST JUMPDEST POP SWAP2 SWAP1 POP JUMP JUMPDEST PUSH1 0x0 DUP2 SWAP1 POP DUP2 PUSH1 0x0 MSTORE PUSH1 0x20 PUSH1 0x0 KECCAK256 SWAP1 POP SWAP2 SWAP1 POP JUMP JUMPDEST PUSH1 0x0 PUSH1 0x20 PUSH1 0x1F DUP4 ADD DIV SWAP1 POP SWAP2 SWAP1 POP JUMP JUMPDEST PUSH1 0x0 DUP3 DUP3 SHL SWAP1 POP SWAP3 SWAP2 POP POP JUMP JUMPDEST PUSH1 0x0 PUSH1 0x8 DUP4 MUL PUSH2 0x15DF PUSH32 0xFFFFFFFFFFFFFFFFFFFFFFFFFFFFFFFFFFFFFFFFFFFFFFFFFFFFFFFFFFFFFFFF DUP3 PUSH2 0x15A2 JUMP JUMPDEST PUSH2 0x15E9 DUP7 DUP4 PUSH2 0x15A2 JUMP JUMPDEST SWAP6 POP DUP1 NOT DUP5 AND SWAP4 POP DUP1 DUP7 AND DUP5 OR SWAP3 POP POP POP SWAP4 SWAP3 POP POP POP JUMP JUMPDEST PUSH1 0x0 PUSH2 0x161C PUSH2 0x1617 PUSH2 0x1612 DUP5 PUSH2 0xF8D JUMP JUMPDEST PUSH2 0xD4F JUMP JUMPDEST PUSH2 0xF8D JUMP JUMPDEST SWAP1 POP SWAP2 SWAP1 POP JUMP JUMPDEST PUSH1 0x0 DUP2 SWAP1 POP SWAP2 SWAP1 POP JUMP JUMPDEST PUSH2 0x1636 DUP4 PUSH2 0x1601 JUMP JUMPDEST PUSH2 0x164A PUSH2 0x1642 DUP3 PUSH2 0x1623 JUMP JUMPDEST DUP5 DUP5 SLOAD PUSH2 0x15AF JUMP JUMPDEST DUP3 SSTORE POP POP POP POP JUMP JUMPDEST PUSH1 0x0 SWAP1 JUMP JUMPDEST PUSH2 0x165F PUSH2 0x1652 JUMP JUMPDEST PUSH2 0x166A DUP2 DUP5 DUP5 PUSH2 0x162D JUMP JUMPDEST POP POP POP JUMP JUMPDEST JUMPDEST DUP2 DUP2 LT ISZERO PUSH2 0x168E JUMPI PUSH2 0x1683 PUSH1 0x0 DUP3 PUSH2 0x1657 JUMP JUMPDEST PUSH1 0x1 DUP2 ADD SWAP1 POP PUSH2 0x1670 JUMP JUMPDEST POP POP JUMP JUMPDEST PUSH1 0x1F DUP3 GT ISZERO PUSH2 0x16D3 JUMPI PUSH2 0x16A4 DUP2 PUSH2 0x157D JUMP JUMPDEST PUSH2 0x16AD DUP5 PUSH2 0x1592 JUMP JUMPDEST DUP2 ADD PUSH1 0x20 DUP6 LT ISZERO PUSH2 0x16BC JUMPI DUP2 SWAP1 POP JUMPDEST PUSH2 0x16D0 PUSH2 0x16C8 DUP6 PUSH2 0x1592 JUMP JUMPDEST DUP4 ADD DUP3 PUSH2 0x166F JUMP JUMPDEST POP POP JUMPDEST POP POP POP JUMP JUMPDEST PUSH1 0x0 DUP3 DUP3 SHR SWAP1 POP SWAP3 SWAP2 POP POP JUMP JUMPDEST PUSH1 0x0 PUSH2 0x16F6 PUSH1 0x0 NOT DUP5 PUSH1 0x8 MUL PUSH2 0x16D8 JUMP JUMPDEST NOT DUP1 DUP4 AND SWAP2 POP POP SWAP3 SWAP2 POP POP JUMP JUMPDEST PUSH1 0x0 PUSH2 0x170F DUP4 DUP4 PUSH2 0x16E5 JUMP JUMPDEST SWAP2 POP DUP3 PUSH1 0x2 MUL DUP3 OR SWAP1 POP SWAP3 SWAP2 POP POP JUMP JUMPDEST PUSH2 0x1728 DUP3 PUSH2 0x1254 JUMP JUMPDEST PUSH8 0xFFFFFFFFFFFFFFFF DUP2 GT ISZERO PUSH2 0x1741 JUMPI PUSH2 0x1740 PUSH2 0xDF8 JUMP JUMPDEST JUMPDEST PUSH2 0x174B DUP3 SLOAD PUSH2 0x154C JUMP JUMPDEST PUSH2 0x1756 DUP3 DUP3 DUP6 PUSH2 0x1692 JUMP JUMPDEST PUSH1 0x0 PUSH1 0x20 SWAP1 POP PUSH1 0x1F DUP4 GT PUSH1 0x1 DUP2 EQ PUSH2 0x1789 JUMPI PUSH1 0x0 DUP5 ISZERO PUSH2 0x1777 JUMPI DUP3 DUP8 ADD MLOAD SWAP1 POP JUMPDEST PUSH2 0x1781 DUP6 DUP3 PUSH2 0x1703 JUMP JUMPDEST DUP7 SSTORE POP PUSH2 0x17E9 JUMP JUMPDEST PUSH1 0x1F NOT DUP5 AND PUSH2 0x1797 DUP7 PUSH2 0x157D JUMP JUMPDEST PUSH1 0x0 JUMPDEST DUP3 DUP2 LT ISZERO PUSH2 0x17BF JUMPI DUP5 DUP10 ADD MLOAD DUP3 SSTORE PUSH1 0x1 DUP3 ADD SWAP2 POP PUSH1 0x20 DUP6 ADD SWAP5 POP PUSH1 0x20 DUP2 ADD SWAP1 POP PUSH2 0x179A JUMP JUMPDEST DUP7 DUP4 LT ISZERO PUSH2 0x17DC JUMPI DUP5 DUP10 ADD MLOAD PUSH2 0x17D8 PUSH1 0x1F DUP10 AND DUP3 PUSH2 0x16E5 JUMP JUMPDEST DUP4 SSTORE POP JUMPDEST PUSH1 0x1 PUSH1 0x2 DUP9 MUL ADD DUP9 SSTORE POP POP POP JUMPDEST POP POP POP POP POP POP JUMP JUMPDEST PUSH1 0x0 PUSH2 0x17FC DUP3 PUSH2 0x1254 JUMP JUMPDEST PUSH2 0x1806 DUP2 DUP6 PUSH2 0x12DC JUMP JUMPDEST SWAP4 POP PUSH2 0x1816 DUP2 DUP6 PUSH1 0x20 DUP7 ADD PUSH2 0x126A JUMP JUMPDEST PUSH2 0x181F DUP2 PUSH2 0xDE7 JUMP JUMPDEST DUP5 ADD SWAP2 POP POP SWAP3 SWAP2 POP POP JUMP JUMPDEST PUSH1 0x0 PUSH1 0x40 DUP3 ADD SWAP1 POP DUP2 DUP2 SUB PUSH1 0x0 DUP4 ADD MSTORE PUSH2 0x1844 DUP2 DUP6 PUSH2 0x17F1 JUMP JUMPDEST SWAP1 POP PUSH2 0x1853 PUSH1 0x20 DUP4 ADD DUP5 PUSH2 0xF7E JUMP JUMPDEST SWAP4 SWAP3 POP POP POP JUMP JUMPDEST PUSH32 0x4E6F742063757272656E74206F776E6572000000000000000000000000000000 PUSH1 0x0 DUP3 ADD MSTORE POP JUMP JUMPDEST PUSH1 0x0 PUSH2 0x1890 PUSH1 0x11 DUP4 PUSH2 0x12DC JUMP JUMPDEST SWAP2 POP PUSH2 0x189B DUP3 PUSH2 0x185A JUMP JUMPDEST PUSH1 0x20 DUP3 ADD SWAP1 POP SWAP2 SWAP1 POP JUMP JUMPDEST PUSH1 0x0 PUSH1 0x20 DUP3 ADD SWAP1 POP DUP2 DUP2 SUB PUSH1 0x0 DUP4 ADD MSTORE PUSH2 0x18BF DUP2 PUSH2 0x1883 JUMP JUMPDEST SWAP1 POP SWAP2 SWAP1 POP JUMP JUMPDEST PUSH32 0x50726F6475637420657870697265640000000000000000000000000000000000 PUSH1 0x0 DUP3 ADD MSTORE POP JUMP JUMPDEST PUSH1 0x0 PUSH2 0x18FC PUSH1 0xF DUP4 PUSH2 0x12DC JUMP JUMPDEST SWAP2 POP PUSH2 0x1907 DUP3 PUSH2 0x18C6 JUMP JUMPDEST PUSH1 0x20 DUP3 ADD SWAP1 POP SWAP2 SWAP1 POP JUMP JUMPDEST PUSH1 0x0 PUSH1 0x20 DUP3 ADD SWAP1 POP DUP2 DUP2 SUB PUSH1 0x0 DUP4 ADD MSTORE PUSH2 0x192B DUP2 PUSH2 0x18EF JUMP JUMPDEST SWAP1 POP SWAP2 SWAP1 POP JUMP JUMPDEST PUSH1 0x5 DUP2 LT PUSH2 0x193F JUMPI PUSH1 0x0 DUP1 REVERT JUMPDEST POP JUMP JUMPDEST PUSH1 0x0 DUP2 MLOAD SWAP1 POP PUSH2 0x1951 DUP2 PUSH2 0x1932 JUMP JUMPDEST SWAP3 SWAP2 POP POP JUMP JUMPDEST PUSH1 0x0 PUSH1 0x20 DUP3 DUP5 SUB SLT ISZERO PUSH2 0x196D JUMPI PUSH2 0x196C PUSH2 0xDD3 JUMP JUMPDEST JUMPDEST PUSH1 0x0 PUSH2 0x197B DUP5 DUP3 DUP6 ADD PUSH2 0x1942 JUMP JUMPDEST SWAP2 POP POP SWAP3 SWAP2 POP POP JUMP JUMPDEST PUSH32 0x4D757374207472616E7366657220746F206469737472696275746F7200000000 PUSH1 0x0 DUP3 ADD MSTORE POP JUMP JUMPDEST PUSH1 0x0 PUSH2 0x19BA PUSH1 0x1C DUP4 PUSH2 0x12DC JUMP JUMPDEST SWAP2 POP PUSH2 0x19C5 DUP3 PUSH2 0x1984 JUMP JUMPDEST PUSH1 0x20 DUP3 ADD SWAP1 POP SWAP2 SWAP1 POP JUMP JUMPDEST PUSH1 0x0 PUSH1 0x20 DUP3 ADD SWAP1 POP DUP2 DUP2 SUB PUSH1 0x0 DUP4 ADD MSTORE PUSH2 0x19E9 DUP2 PUSH2 0x19AD JUMP JUMPDEST SWAP1 POP SWAP2 SWAP1 POP JUMP JUMPDEST PUSH32 0x4D757374207472616E7366657220746F20706861726D61637900000000000000 PUSH1 0x0 DUP3 ADD MSTORE POP JUMP JUMPDEST PUSH1 0x0 PUSH2 0x1A26 PUSH1 0x19 DUP4 PUSH2 0x12DC JUMP JUMPDEST SWAP2 POP PUSH2 0x1A31 DUP3 PUSH2 0x19F0 JUMP JUMPDEST PUSH1 0x20 DUP3 ADD SWAP1 POP SWAP2 SWAP1 POP JUMP JUMPDEST PUSH1 0x0 PUSH1 0x20 DUP3 ADD SWAP1 POP DUP2 DUP2 SUB PUSH1 0x0 DUP4 ADD MSTORE PUSH2 0x1A55 DUP2 PUSH2 0x1A19 JUMP JUMPDEST SWAP1 POP SWAP2 SWAP1 POP JUMP JUMPDEST PUSH32 0x496E76616C696420726F6C65207472616E736665720000000000000000000000 PUSH1 0x0 DUP3 ADD MSTORE POP JUMP JUMPDEST PUSH1 0x0 PUSH2 0x1A92 PUSH1 0x15 DUP4 PUSH2 0x12DC JUMP JUMPDEST SWAP2 POP PUSH2 0x1A9D DUP3 PUSH2 0x1A5C JUMP JUMPDEST PUSH1 0x20 DUP3 ADD SWAP1 POP SWAP2 SWAP1 POP JUMP JUMPDEST PUSH1 0x0 PUSH1 0x20 DUP3 ADD SWAP1 POP DUP2 DUP2 SUB PUSH1 0x0 DUP4 ADD MSTORE PUSH2 0x1AC1 DUP2 PUSH2 0x1A85 JUMP JUMPDEST SWAP1 POP SWAP2 SWAP1 POP JUMP JUMPDEST PUSH1 0x0 PUSH1 0x60 DUP3 ADD SWAP1 POP DUP2 DUP2 SUB PUSH1 0x0 DUP4 ADD MSTORE PUSH2 0x1AE2 DUP2 DUP7 PUSH2 0x17F1 JUMP JUMPDEST SWAP1 POP PUSH2 0x1AF1 PUSH1 0x20 DUP4 ADD DUP6 PUSH2 0xF7E JUMP JUMPDEST PUSH2 0x1AFE PUSH1 0x40 DUP4 ADD DUP5 PUSH2 0xF7E JUMP JUMPDEST SWAP5 SWAP4 POP POP POP POP JUMP JUMPDEST PUSH2 0x1B0F DUP2 PUSH2 0x1193 JUMP JUMPDEST DUP3 MSTORE POP POP JUMP JUMPDEST PUSH1 0x0 PUSH1 0x60 DUP3 ADD SWAP1 POP DUP2 DUP2 SUB PUSH1 0x0 DUP4 ADD MSTORE PUSH2 0x1B2F DUP2 DUP7 PUSH2 0x17F1 JUMP JUMPDEST SWAP1 POP DUP2 DUP2 SUB PUSH1 0x20 DUP4 ADD MSTORE PUSH2 0x1B43 DUP2 DUP6 PUSH2 0x17F1 JUMP JUMPDEST SWAP1 POP PUSH2 0x1B52 PUSH1 0x40 DUP4 ADD DUP5 PUSH2 0x1B06 JUMP JUMPDEST SWAP5 SWAP4 POP POP POP POP JUMP INVALID LOG2 PUSH5 0x6970667358 0x22 SLT KECCAK256 0xC1 MULMOD LOG3 CREATE2 PUSH26 0x3C4C419FF88D34426BA6B87B096FCDC330BCB65A2E8F5BC32A35 0xFC PUSH5 0x736F6C6343 STOP ADDMOD EQ STOP CALLER "},"methodIdentifiers":{"addTransportLog(string,string,int256)":"af8d016c","createProduct(string,uint256,uint256)":"7bf12b1c","getProduct(string)":"68111cce","roleManager()":"00435da5","transferProduct(string,address)":"90afcb9d"}}}}}